{
	"Trabalho Pos/Exercicio2D.sol": {
		"Contract": {
			"abi": [
				{
					"inputs": [],
					"stateMutability": "nonpayable",
					"type": "constructor"
				},
				{
					"inputs": [
						{
							"internalType": "uint256",
							"name": "a",
							"type": "uint256"
						},
						{
							"internalType": "uint256",
							"name": "b",
							"type": "uint256"
						}
					],
					"name": "dividir",
					"outputs": [
						{
							"internalType": "uint256",
							"name": "",
							"type": "uint256"
						}
					],
					"stateMutability": "payable",
					"type": "function"
				},
				{
					"inputs": [
						{
							"internalType": "uint256",
							"name": "a",
							"type": "uint256"
						},
						{
							"internalType": "uint256",
							"name": "b",
							"type": "uint256"
						}
					],
					"name": "multiplicar",
					"outputs": [
						{
							"internalType": "uint256",
							"name": "",
							"type": "uint256"
						}
					],
					"stateMutability": "payable",
					"type": "function"
				},
				{
					"inputs": [
						{
							"internalType": "uint256",
							"name": "a",
							"type": "uint256"
						},
						{
							"internalType": "uint256",
							"name": "b",
							"type": "uint256"
						}
					],
					"name": "somar",
					"outputs": [
						{
							"internalType": "uint256",
							"name": "",
							"type": "uint256"
						}
					],
					"stateMutability": "payable",
					"type": "function"
				},
				{
					"inputs": [
						{
							"internalType": "uint256",
							"name": "a",
							"type": "uint256"
						},
						{
							"internalType": "uint256",
							"name": "b",
							"type": "uint256"
						}
					],
					"name": "subtrair",
					"outputs": [
						{
							"internalType": "uint256",
							"name": "",
							"type": "uint256"
						}
					],
					"stateMutability": "payable",
					"type": "function"
				}
			],
			"devdoc": {
				"kind": "dev",
				"methods": {},
				"version": 1
			},
			"evm": {
				"assembly": "    /* \"Trabalho Pos/Exercicio2D.sol\":263:1246  contract Contract {... */\n  mstore(0x40, 0x80)\n    /* \"Trabalho Pos/Exercicio2D.sol\":316:366  constructor(){... */\n  callvalue\n  dup1\n  iszero\n  tag_1\n  jumpi\n  0x00\n  dup1\n  revert\ntag_1:\n  pop\n    /* \"Trabalho Pos/Exercicio2D.sol\":348:358  msg.sender */\n  caller\n    /* \"Trabalho Pos/Exercicio2D.sol\":340:345  owner */\n  0x00\n  dup1\n    /* \"Trabalho Pos/Exercicio2D.sol\":340:358  owner = msg.sender */\n  0x0100\n  exp\n  dup2\n  sload\n  dup2\n  0xffffffffffffffffffffffffffffffffffffffff\n  mul\n  not\n  and\n  swap1\n  dup4\n  0xffffffffffffffffffffffffffffffffffffffff\n  and\n  mul\n  or\n  swap1\n  sstore\n  pop\n    /* \"Trabalho Pos/Exercicio2D.sol\":263:1246  contract Contract {... */\n  dataSize(sub_0)\n  dup1\n  dataOffset(sub_0)\n  0x00\n  codecopy\n  0x00\n  return\nstop\n\nsub_0: assembly {\n        /* \"Trabalho Pos/Exercicio2D.sol\":263:1246  contract Contract {... */\n      mstore(0x40, 0x80)\n      jumpi(tag_1, lt(calldatasize, 0x04))\n      shr(0xe0, calldataload(0x00))\n      dup1\n      0x1bdbe55d\n      eq\n      tag_2\n      jumpi\n      dup1\n      0x72f214b8\n      eq\n      tag_3\n      jumpi\n      dup1\n      0xa112c5da\n      eq\n      tag_4\n      jumpi\n      dup1\n      0xfbf188a2\n      eq\n      tag_5\n      jumpi\n    tag_1:\n      0x00\n      dup1\n      revert\n        /* \"Trabalho Pos/Exercicio2D.sol\":1023:1127  function dividir (uint a, uint b) public payable pagamento returns(uint) {... */\n    tag_2:\n      tag_6\n      0x04\n      dup1\n      calldatasize\n      sub\n      dup2\n      add\n      swap1\n      tag_7\n      swap2\n      swap1\n      tag_8\n      jump\t// in\n    tag_7:\n      tag_9\n      jump\t// in\n    tag_6:\n      mload(0x40)\n      tag_10\n      swap2\n      swap1\n      tag_11\n      jump\t// in\n    tag_10:\n      mload(0x40)\n      dup1\n      swap2\n      sub\n      swap1\n      return\n        /* \"Trabalho Pos/Exercicio2D.sol\":910:1015  function subtrair (uint a, uint b) public payable pagamento returns(uint) {... */\n    tag_3:\n      tag_12\n      0x04\n      dup1\n      calldatasize\n      sub\n      dup2\n      add\n      swap1\n      tag_13\n      swap2\n      swap1\n      tag_8\n      jump\t// in\n    tag_13:\n      tag_14\n      jump\t// in\n    tag_12:\n      mload(0x40)\n      tag_15\n      swap2\n      swap1\n      tag_11\n      jump\t// in\n    tag_15:\n      mload(0x40)\n      dup1\n      swap2\n      sub\n      swap1\n      return\n        /* \"Trabalho Pos/Exercicio2D.sol\":800:902  function somar (uint a, uint b) public payable pagamento returns(uint) {... */\n    tag_4:\n      tag_16\n      0x04\n      dup1\n      calldatasize\n      sub\n      dup2\n      add\n      swap1\n      tag_17\n      swap2\n      swap1\n      tag_8\n      jump\t// in\n    tag_17:\n      tag_18\n      jump\t// in\n    tag_16:\n      mload(0x40)\n      tag_19\n      swap2\n      swap1\n      tag_11\n      jump\t// in\n    tag_19:\n      mload(0x40)\n      dup1\n      swap2\n      sub\n      swap1\n      return\n        /* \"Trabalho Pos/Exercicio2D.sol\":1135:1243  function multiplicar (uint a, uint b) public payable pagamento returns(uint) {... */\n    tag_5:\n      tag_20\n      0x04\n      dup1\n      calldatasize\n      sub\n      dup2\n      add\n      swap1\n      tag_21\n      swap2\n      swap1\n      tag_8\n      jump\t// in\n    tag_21:\n      tag_22\n      jump\t// in\n    tag_20:\n      mload(0x40)\n      tag_23\n      swap2\n      swap1\n      tag_11\n      jump\t// in\n    tag_23:\n      mload(0x40)\n      dup1\n      swap2\n      sub\n      swap1\n      return\n        /* \"Trabalho Pos/Exercicio2D.sol\":1023:1127  function dividir (uint a, uint b) public payable pagamento returns(uint) {... */\n    tag_9:\n        /* \"Trabalho Pos/Exercicio2D.sol\":1090:1094  uint */\n      0x00\n        /* \"Trabalho Pos/Exercicio2D.sol\":406:419  address payee */\n      dup1\n        /* \"Trabalho Pos/Exercicio2D.sol\":422:432  msg.sender */\n      caller\n        /* \"Trabalho Pos/Exercicio2D.sol\":406:432  address payee = msg.sender */\n      swap1\n      pop\n        /* \"Trabalho Pos/Exercicio2D.sol\":464:469  1 wei */\n      0x01\n        /* \"Trabalho Pos/Exercicio2D.sol\":453:462  msg.value */\n      callvalue\n        /* \"Trabalho Pos/Exercicio2D.sol\":453:469  msg.value>=1 wei */\n      lt\n      iszero\n        /* \"Trabalho Pos/Exercicio2D.sol\":445:519  require(msg.value>=1 wei, \"O valor transferido deve ser pelo menos 1 wei\") */\n      tag_25\n      jumpi\n      mload(0x40)\n      0x08c379a000000000000000000000000000000000000000000000000000000000\n      dup2\n      mstore\n      0x04\n      add\n      tag_26\n      swap1\n      tag_27\n      jump\t// in\n    tag_26:\n      mload(0x40)\n      dup1\n      swap2\n      sub\n      swap1\n      revert\n    tag_25:\n        /* \"Trabalho Pos/Exercicio2D.sol\":540:549  bool sent */\n      0x00\n        /* \"Trabalho Pos/Exercicio2D.sol\":560:565  owner */\n      dup1\n      0x00\n      swap1\n      sload\n      swap1\n      0x0100\n      exp\n      swap1\n      div\n      0xffffffffffffffffffffffffffffffffffffffff\n      and\n        /* \"Trabalho Pos/Exercicio2D.sol\":552:571  payable(owner).send */\n      0xffffffffffffffffffffffffffffffffffffffff\n      and\n        /* \"Trabalho Pos/Exercicio2D.sol\":552:578  payable(owner).send(1 wei) */\n      0x08fc\n        /* \"Trabalho Pos/Exercicio2D.sol\":572:577  1 wei */\n      0x01\n        /* \"Trabalho Pos/Exercicio2D.sol\":552:578  payable(owner).send(1 wei) */\n      swap1\n      dup2\n      iszero\n      mul\n      swap1\n      mload(0x40)\n      0x00\n      mload(0x40)\n      dup1\n      dup4\n      sub\n      dup2\n      dup6\n      dup9\n      dup9\n      call\n      swap4\n      pop\n      pop\n      pop\n      pop\n        /* \"Trabalho Pos/Exercicio2D.sol\":540:578  bool sent = payable(owner).send(1 wei) */\n      swap1\n      pop\n        /* \"Trabalho Pos/Exercicio2D.sol\":601:605  sent */\n      dup1\n        /* \"Trabalho Pos/Exercicio2D.sol\":593:642  require(sent, \"Falha ao enviar wei para o owner\") */\n      tag_29\n      jumpi\n      mload(0x40)\n      0x08c379a000000000000000000000000000000000000000000000000000000000\n      dup2\n      mstore\n      0x04\n      add\n      tag_30\n      swap1\n      tag_31\n      jump\t// in\n    tag_30:\n      mload(0x40)\n      dup1\n      swap2\n      sub\n      swap1\n      revert\n    tag_29:\n        /* \"Trabalho Pos/Exercicio2D.sol\":670:675  payee */\n      dup2\n        /* \"Trabalho Pos/Exercicio2D.sol\":662:681  payable(payee).send */\n      0xffffffffffffffffffffffffffffffffffffffff\n      and\n        /* \"Trabalho Pos/Exercicio2D.sol\":662:698  payable(payee).send(msg.value-1 wei) */\n      0x08fc\n        /* \"Trabalho Pos/Exercicio2D.sol\":692:697  1 wei */\n      0x01\n        /* \"Trabalho Pos/Exercicio2D.sol\":682:691  msg.value */\n      callvalue\n        /* \"Trabalho Pos/Exercicio2D.sol\":682:697  msg.value-1 wei */\n      tag_32\n      swap2\n      swap1\n      tag_33\n      jump\t// in\n    tag_32:\n        /* \"Trabalho Pos/Exercicio2D.sol\":662:698  payable(payee).send(msg.value-1 wei) */\n      swap1\n      dup2\n      iszero\n      mul\n      swap1\n      mload(0x40)\n      0x00\n      mload(0x40)\n      dup1\n      dup4\n      sub\n      dup2\n      dup6\n      dup9\n      dup9\n      call\n      swap4\n      pop\n      pop\n      pop\n      pop\n        /* \"Trabalho Pos/Exercicio2D.sol\":655:698  sent = payable(payee).send(msg.value-1 wei) */\n      swap1\n      pop\n        /* \"Trabalho Pos/Exercicio2D.sol\":721:725  sent */\n      dup1\n        /* \"Trabalho Pos/Exercicio2D.sol\":713:762  require(sent, \"Falha ao enviar wei para o payee\") */\n      tag_35\n      jumpi\n      mload(0x40)\n      0x08c379a000000000000000000000000000000000000000000000000000000000\n      dup2\n      mstore\n      0x04\n      add\n      tag_36\n      swap1\n      tag_37\n      jump\t// in\n    tag_36:\n      mload(0x40)\n      dup1\n      swap2\n      sub\n      swap1\n      revert\n    tag_35:\n        /* \"Trabalho Pos/Exercicio2D.sol\":1118:1119  b */\n      dup4\n        /* \"Trabalho Pos/Exercicio2D.sol\":1114:1115  a */\n      dup6\n        /* \"Trabalho Pos/Exercicio2D.sol\":1114:1119  a / b */\n      tag_39\n      swap2\n      swap1\n      tag_40\n      jump\t// in\n    tag_39:\n        /* \"Trabalho Pos/Exercicio2D.sol\":1107:1119  return a / b */\n      swap3\n      pop\n        /* \"Trabalho Pos/Exercicio2D.sol\":395:784  {... */\n      pop\n      pop\n        /* \"Trabalho Pos/Exercicio2D.sol\":1023:1127  function dividir (uint a, uint b) public payable pagamento returns(uint) {... */\n      swap3\n      swap2\n      pop\n      pop\n      jump\t// out\n        /* \"Trabalho Pos/Exercicio2D.sol\":910:1015  function subtrair (uint a, uint b) public payable pagamento returns(uint) {... */\n    tag_14:\n        /* \"Trabalho Pos/Exercicio2D.sol\":978:982  uint */\n      0x00\n        /* \"Trabalho Pos/Exercicio2D.sol\":406:419  address payee */\n      dup1\n        /* \"Trabalho Pos/Exercicio2D.sol\":422:432  msg.sender */\n      caller\n        /* \"Trabalho Pos/Exercicio2D.sol\":406:432  address payee = msg.sender */\n      swap1\n      pop\n        /* \"Trabalho Pos/Exercicio2D.sol\":464:469  1 wei */\n      0x01\n        /* \"Trabalho Pos/Exercicio2D.sol\":453:462  msg.value */\n      callvalue\n        /* \"Trabalho Pos/Exercicio2D.sol\":453:469  msg.value>=1 wei */\n      lt\n      iszero\n        /* \"Trabalho Pos/Exercicio2D.sol\":445:519  require(msg.value>=1 wei, \"O valor transferido deve ser pelo menos 1 wei\") */\n      tag_42\n      jumpi\n      mload(0x40)\n      0x08c379a000000000000000000000000000000000000000000000000000000000\n      dup2\n      mstore\n      0x04\n      add\n      tag_43\n      swap1\n      tag_27\n      jump\t// in\n    tag_43:\n      mload(0x40)\n      dup1\n      swap2\n      sub\n      swap1\n      revert\n    tag_42:\n        /* \"Trabalho Pos/Exercicio2D.sol\":540:549  bool sent */\n      0x00\n        /* \"Trabalho Pos/Exercicio2D.sol\":560:565  owner */\n      dup1\n      0x00\n      swap1\n      sload\n      swap1\n      0x0100\n      exp\n      swap1\n      div\n      0xffffffffffffffffffffffffffffffffffffffff\n      and\n        /* \"Trabalho Pos/Exercicio2D.sol\":552:571  payable(owner).send */\n      0xffffffffffffffffffffffffffffffffffffffff\n      and\n        /* \"Trabalho Pos/Exercicio2D.sol\":552:578  payable(owner).send(1 wei) */\n      0x08fc\n        /* \"Trabalho Pos/Exercicio2D.sol\":572:577  1 wei */\n      0x01\n        /* \"Trabalho Pos/Exercicio2D.sol\":552:578  payable(owner).send(1 wei) */\n      swap1\n      dup2\n      iszero\n      mul\n      swap1\n      mload(0x40)\n      0x00\n      mload(0x40)\n      dup1\n      dup4\n      sub\n      dup2\n      dup6\n      dup9\n      dup9\n      call\n      swap4\n      pop\n      pop\n      pop\n      pop\n        /* \"Trabalho Pos/Exercicio2D.sol\":540:578  bool sent = payable(owner).send(1 wei) */\n      swap1\n      pop\n        /* \"Trabalho Pos/Exercicio2D.sol\":601:605  sent */\n      dup1\n        /* \"Trabalho Pos/Exercicio2D.sol\":593:642  require(sent, \"Falha ao enviar wei para o owner\") */\n      tag_45\n      jumpi\n      mload(0x40)\n      0x08c379a000000000000000000000000000000000000000000000000000000000\n      dup2\n      mstore\n      0x04\n      add\n      tag_46\n      swap1\n      tag_31\n      jump\t// in\n    tag_46:\n      mload(0x40)\n      dup1\n      swap2\n      sub\n      swap1\n      revert\n    tag_45:\n        /* \"Trabalho Pos/Exercicio2D.sol\":670:675  payee */\n      dup2\n        /* \"Trabalho Pos/Exercicio2D.sol\":662:681  payable(payee).send */\n      0xffffffffffffffffffffffffffffffffffffffff\n      and\n        /* \"Trabalho Pos/Exercicio2D.sol\":662:698  payable(payee).send(msg.value-1 wei) */\n      0x08fc\n        /* \"Trabalho Pos/Exercicio2D.sol\":692:697  1 wei */\n      0x01\n        /* \"Trabalho Pos/Exercicio2D.sol\":682:691  msg.value */\n      callvalue\n        /* \"Trabalho Pos/Exercicio2D.sol\":682:697  msg.value-1 wei */\n      tag_47\n      swap2\n      swap1\n      tag_33\n      jump\t// in\n    tag_47:\n        /* \"Trabalho Pos/Exercicio2D.sol\":662:698  payable(payee).send(msg.value-1 wei) */\n      swap1\n      dup2\n      iszero\n      mul\n      swap1\n      mload(0x40)\n      0x00\n      mload(0x40)\n      dup1\n      dup4\n      sub\n      dup2\n      dup6\n      dup9\n      dup9\n      call\n      swap4\n      pop\n      pop\n      pop\n      pop\n        /* \"Trabalho Pos/Exercicio2D.sol\":655:698  sent = payable(payee).send(msg.value-1 wei) */\n      swap1\n      pop\n        /* \"Trabalho Pos/Exercicio2D.sol\":721:725  sent */\n      dup1\n        /* \"Trabalho Pos/Exercicio2D.sol\":713:762  require(sent, \"Falha ao enviar wei para o payee\") */\n      tag_49\n      jumpi\n      mload(0x40)\n      0x08c379a000000000000000000000000000000000000000000000000000000000\n      dup2\n      mstore\n      0x04\n      add\n      tag_50\n      swap1\n      tag_37\n      jump\t// in\n    tag_50:\n      mload(0x40)\n      dup1\n      swap2\n      sub\n      swap1\n      revert\n    tag_49:\n        /* \"Trabalho Pos/Exercicio2D.sol\":1006:1007  b */\n      dup4\n        /* \"Trabalho Pos/Exercicio2D.sol\":1002:1003  a */\n      dup6\n        /* \"Trabalho Pos/Exercicio2D.sol\":1002:1007  a - b */\n      tag_52\n      swap2\n      swap1\n      tag_33\n      jump\t// in\n    tag_52:\n        /* \"Trabalho Pos/Exercicio2D.sol\":995:1007  return a - b */\n      swap3\n      pop\n        /* \"Trabalho Pos/Exercicio2D.sol\":395:784  {... */\n      pop\n      pop\n        /* \"Trabalho Pos/Exercicio2D.sol\":910:1015  function subtrair (uint a, uint b) public payable pagamento returns(uint) {... */\n      swap3\n      swap2\n      pop\n      pop\n      jump\t// out\n        /* \"Trabalho Pos/Exercicio2D.sol\":800:902  function somar (uint a, uint b) public payable pagamento returns(uint) {... */\n    tag_18:\n        /* \"Trabalho Pos/Exercicio2D.sol\":865:869  uint */\n      0x00\n        /* \"Trabalho Pos/Exercicio2D.sol\":406:419  address payee */\n      dup1\n        /* \"Trabalho Pos/Exercicio2D.sol\":422:432  msg.sender */\n      caller\n        /* \"Trabalho Pos/Exercicio2D.sol\":406:432  address payee = msg.sender */\n      swap1\n      pop\n        /* \"Trabalho Pos/Exercicio2D.sol\":464:469  1 wei */\n      0x01\n        /* \"Trabalho Pos/Exercicio2D.sol\":453:462  msg.value */\n      callvalue\n        /* \"Trabalho Pos/Exercicio2D.sol\":453:469  msg.value>=1 wei */\n      lt\n      iszero\n        /* \"Trabalho Pos/Exercicio2D.sol\":445:519  require(msg.value>=1 wei, \"O valor transferido deve ser pelo menos 1 wei\") */\n      tag_54\n      jumpi\n      mload(0x40)\n      0x08c379a000000000000000000000000000000000000000000000000000000000\n      dup2\n      mstore\n      0x04\n      add\n      tag_55\n      swap1\n      tag_27\n      jump\t// in\n    tag_55:\n      mload(0x40)\n      dup1\n      swap2\n      sub\n      swap1\n      revert\n    tag_54:\n        /* \"Trabalho Pos/Exercicio2D.sol\":540:549  bool sent */\n      0x00\n        /* \"Trabalho Pos/Exercicio2D.sol\":560:565  owner */\n      dup1\n      0x00\n      swap1\n      sload\n      swap1\n      0x0100\n      exp\n      swap1\n      div\n      0xffffffffffffffffffffffffffffffffffffffff\n      and\n        /* \"Trabalho Pos/Exercicio2D.sol\":552:571  payable(owner).send */\n      0xffffffffffffffffffffffffffffffffffffffff\n      and\n        /* \"Trabalho Pos/Exercicio2D.sol\":552:578  payable(owner).send(1 wei) */\n      0x08fc\n        /* \"Trabalho Pos/Exercicio2D.sol\":572:577  1 wei */\n      0x01\n        /* \"Trabalho Pos/Exercicio2D.sol\":552:578  payable(owner).send(1 wei) */\n      swap1\n      dup2\n      iszero\n      mul\n      swap1\n      mload(0x40)\n      0x00\n      mload(0x40)\n      dup1\n      dup4\n      sub\n      dup2\n      dup6\n      dup9\n      dup9\n      call\n      swap4\n      pop\n      pop\n      pop\n      pop\n        /* \"Trabalho Pos/Exercicio2D.sol\":540:578  bool sent = payable(owner).send(1 wei) */\n      swap1\n      pop\n        /* \"Trabalho Pos/Exercicio2D.sol\":601:605  sent */\n      dup1\n        /* \"Trabalho Pos/Exercicio2D.sol\":593:642  require(sent, \"Falha ao enviar wei para o owner\") */\n      tag_57\n      jumpi\n      mload(0x40)\n      0x08c379a000000000000000000000000000000000000000000000000000000000\n      dup2\n      mstore\n      0x04\n      add\n      tag_58\n      swap1\n      tag_31\n      jump\t// in\n    tag_58:\n      mload(0x40)\n      dup1\n      swap2\n      sub\n      swap1\n      revert\n    tag_57:\n        /* \"Trabalho Pos/Exercicio2D.sol\":670:675  payee */\n      dup2\n        /* \"Trabalho Pos/Exercicio2D.sol\":662:681  payable(payee).send */\n      0xffffffffffffffffffffffffffffffffffffffff\n      and\n        /* \"Trabalho Pos/Exercicio2D.sol\":662:698  payable(payee).send(msg.value-1 wei) */\n      0x08fc\n        /* \"Trabalho Pos/Exercicio2D.sol\":692:697  1 wei */\n      0x01\n        /* \"Trabalho Pos/Exercicio2D.sol\":682:691  msg.value */\n      callvalue\n        /* \"Trabalho Pos/Exercicio2D.sol\":682:697  msg.value-1 wei */\n      tag_59\n      swap2\n      swap1\n      tag_33\n      jump\t// in\n    tag_59:\n        /* \"Trabalho Pos/Exercicio2D.sol\":662:698  payable(payee).send(msg.value-1 wei) */\n      swap1\n      dup2\n      iszero\n      mul\n      swap1\n      mload(0x40)\n      0x00\n      mload(0x40)\n      dup1\n      dup4\n      sub\n      dup2\n      dup6\n      dup9\n      dup9\n      call\n      swap4\n      pop\n      pop\n      pop\n      pop\n        /* \"Trabalho Pos/Exercicio2D.sol\":655:698  sent = payable(payee).send(msg.value-1 wei) */\n      swap1\n      pop\n        /* \"Trabalho Pos/Exercicio2D.sol\":721:725  sent */\n      dup1\n        /* \"Trabalho Pos/Exercicio2D.sol\":713:762  require(sent, \"Falha ao enviar wei para o payee\") */\n      tag_61\n      jumpi\n      mload(0x40)\n      0x08c379a000000000000000000000000000000000000000000000000000000000\n      dup2\n      mstore\n      0x04\n      add\n      tag_62\n      swap1\n      tag_37\n      jump\t// in\n    tag_62:\n      mload(0x40)\n      dup1\n      swap2\n      sub\n      swap1\n      revert\n    tag_61:\n        /* \"Trabalho Pos/Exercicio2D.sol\":893:894  b */\n      dup4\n        /* \"Trabalho Pos/Exercicio2D.sol\":889:890  a */\n      dup6\n        /* \"Trabalho Pos/Exercicio2D.sol\":889:894  a + b */\n      tag_64\n      swap2\n      swap1\n      tag_65\n      jump\t// in\n    tag_64:\n        /* \"Trabalho Pos/Exercicio2D.sol\":882:894  return a + b */\n      swap3\n      pop\n        /* \"Trabalho Pos/Exercicio2D.sol\":395:784  {... */\n      pop\n      pop\n        /* \"Trabalho Pos/Exercicio2D.sol\":800:902  function somar (uint a, uint b) public payable pagamento returns(uint) {... */\n      swap3\n      swap2\n      pop\n      pop\n      jump\t// out\n        /* \"Trabalho Pos/Exercicio2D.sol\":1135:1243  function multiplicar (uint a, uint b) public payable pagamento returns(uint) {... */\n    tag_22:\n        /* \"Trabalho Pos/Exercicio2D.sol\":1206:1210  uint */\n      0x00\n        /* \"Trabalho Pos/Exercicio2D.sol\":406:419  address payee */\n      dup1\n        /* \"Trabalho Pos/Exercicio2D.sol\":422:432  msg.sender */\n      caller\n        /* \"Trabalho Pos/Exercicio2D.sol\":406:432  address payee = msg.sender */\n      swap1\n      pop\n        /* \"Trabalho Pos/Exercicio2D.sol\":464:469  1 wei */\n      0x01\n        /* \"Trabalho Pos/Exercicio2D.sol\":453:462  msg.value */\n      callvalue\n        /* \"Trabalho Pos/Exercicio2D.sol\":453:469  msg.value>=1 wei */\n      lt\n      iszero\n        /* \"Trabalho Pos/Exercicio2D.sol\":445:519  require(msg.value>=1 wei, \"O valor transferido deve ser pelo menos 1 wei\") */\n      tag_67\n      jumpi\n      mload(0x40)\n      0x08c379a000000000000000000000000000000000000000000000000000000000\n      dup2\n      mstore\n      0x04\n      add\n      tag_68\n      swap1\n      tag_27\n      jump\t// in\n    tag_68:\n      mload(0x40)\n      dup1\n      swap2\n      sub\n      swap1\n      revert\n    tag_67:\n        /* \"Trabalho Pos/Exercicio2D.sol\":540:549  bool sent */\n      0x00\n        /* \"Trabalho Pos/Exercicio2D.sol\":560:565  owner */\n      dup1\n      0x00\n      swap1\n      sload\n      swap1\n      0x0100\n      exp\n      swap1\n      div\n      0xffffffffffffffffffffffffffffffffffffffff\n      and\n        /* \"Trabalho Pos/Exercicio2D.sol\":552:571  payable(owner).send */\n      0xffffffffffffffffffffffffffffffffffffffff\n      and\n        /* \"Trabalho Pos/Exercicio2D.sol\":552:578  payable(owner).send(1 wei) */\n      0x08fc\n        /* \"Trabalho Pos/Exercicio2D.sol\":572:577  1 wei */\n      0x01\n        /* \"Trabalho Pos/Exercicio2D.sol\":552:578  payable(owner).send(1 wei) */\n      swap1\n      dup2\n      iszero\n      mul\n      swap1\n      mload(0x40)\n      0x00\n      mload(0x40)\n      dup1\n      dup4\n      sub\n      dup2\n      dup6\n      dup9\n      dup9\n      call\n      swap4\n      pop\n      pop\n      pop\n      pop\n        /* \"Trabalho Pos/Exercicio2D.sol\":540:578  bool sent = payable(owner).send(1 wei) */\n      swap1\n      pop\n        /* \"Trabalho Pos/Exercicio2D.sol\":601:605  sent */\n      dup1\n        /* \"Trabalho Pos/Exercicio2D.sol\":593:642  require(sent, \"Falha ao enviar wei para o owner\") */\n      tag_70\n      jumpi\n      mload(0x40)\n      0x08c379a000000000000000000000000000000000000000000000000000000000\n      dup2\n      mstore\n      0x04\n      add\n      tag_71\n      swap1\n      tag_31\n      jump\t// in\n    tag_71:\n      mload(0x40)\n      dup1\n      swap2\n      sub\n      swap1\n      revert\n    tag_70:\n        /* \"Trabalho Pos/Exercicio2D.sol\":670:675  payee */\n      dup2\n        /* \"Trabalho Pos/Exercicio2D.sol\":662:681  payable(payee).send */\n      0xffffffffffffffffffffffffffffffffffffffff\n      and\n        /* \"Trabalho Pos/Exercicio2D.sol\":662:698  payable(payee).send(msg.value-1 wei) */\n      0x08fc\n        /* \"Trabalho Pos/Exercicio2D.sol\":692:697  1 wei */\n      0x01\n        /* \"Trabalho Pos/Exercicio2D.sol\":682:691  msg.value */\n      callvalue\n        /* \"Trabalho Pos/Exercicio2D.sol\":682:697  msg.value-1 wei */\n      tag_72\n      swap2\n      swap1\n      tag_33\n      jump\t// in\n    tag_72:\n        /* \"Trabalho Pos/Exercicio2D.sol\":662:698  payable(payee).send(msg.value-1 wei) */\n      swap1\n      dup2\n      iszero\n      mul\n      swap1\n      mload(0x40)\n      0x00\n      mload(0x40)\n      dup1\n      dup4\n      sub\n      dup2\n      dup6\n      dup9\n      dup9\n      call\n      swap4\n      pop\n      pop\n      pop\n      pop\n        /* \"Trabalho Pos/Exercicio2D.sol\":655:698  sent = payable(payee).send(msg.value-1 wei) */\n      swap1\n      pop\n        /* \"Trabalho Pos/Exercicio2D.sol\":721:725  sent */\n      dup1\n        /* \"Trabalho Pos/Exercicio2D.sol\":713:762  require(sent, \"Falha ao enviar wei para o payee\") */\n      tag_74\n      jumpi\n      mload(0x40)\n      0x08c379a000000000000000000000000000000000000000000000000000000000\n      dup2\n      mstore\n      0x04\n      add\n      tag_75\n      swap1\n      tag_37\n      jump\t// in\n    tag_75:\n      mload(0x40)\n      dup1\n      swap2\n      sub\n      swap1\n      revert\n    tag_74:\n        /* \"Trabalho Pos/Exercicio2D.sol\":1234:1235  b */\n      dup4\n        /* \"Trabalho Pos/Exercicio2D.sol\":1230:1231  a */\n      dup6\n        /* \"Trabalho Pos/Exercicio2D.sol\":1230:1235  a * b */\n      tag_77\n      swap2\n      swap1\n      tag_78\n      jump\t// in\n    tag_77:\n        /* \"Trabalho Pos/Exercicio2D.sol\":1223:1235  return a * b */\n      swap3\n      pop\n        /* \"Trabalho Pos/Exercicio2D.sol\":395:784  {... */\n      pop\n      pop\n        /* \"Trabalho Pos/Exercicio2D.sol\":1135:1243  function multiplicar (uint a, uint b) public payable pagamento returns(uint) {... */\n      swap3\n      swap2\n      pop\n      pop\n      jump\t// out\n        /* \"#utility.yul\":88:205   */\n    tag_80:\n        /* \"#utility.yul\":197:198   */\n      0x00\n        /* \"#utility.yul\":194:195   */\n      dup1\n        /* \"#utility.yul\":187:199   */\n      revert\n        /* \"#utility.yul\":334:411   */\n    tag_82:\n        /* \"#utility.yul\":371:378   */\n      0x00\n        /* \"#utility.yul\":400:405   */\n      dup2\n        /* \"#utility.yul\":389:405   */\n      swap1\n      pop\n        /* \"#utility.yul\":334:411   */\n      swap2\n      swap1\n      pop\n      jump\t// out\n        /* \"#utility.yul\":417:539   */\n    tag_83:\n        /* \"#utility.yul\":490:514   */\n      tag_101\n        /* \"#utility.yul\":508:513   */\n      dup2\n        /* \"#utility.yul\":490:514   */\n      tag_82\n      jump\t// in\n    tag_101:\n        /* \"#utility.yul\":483:488   */\n      dup2\n        /* \"#utility.yul\":480:515   */\n      eq\n        /* \"#utility.yul\":470:533   */\n      tag_102\n      jumpi\n        /* \"#utility.yul\":529:530   */\n      0x00\n        /* \"#utility.yul\":526:527   */\n      dup1\n        /* \"#utility.yul\":519:531   */\n      revert\n        /* \"#utility.yul\":470:533   */\n    tag_102:\n        /* \"#utility.yul\":417:539   */\n      pop\n      jump\t// out\n        /* \"#utility.yul\":545:684   */\n    tag_84:\n        /* \"#utility.yul\":591:596   */\n      0x00\n        /* \"#utility.yul\":629:635   */\n      dup2\n        /* \"#utility.yul\":616:636   */\n      calldataload\n        /* \"#utility.yul\":607:636   */\n      swap1\n      pop\n        /* \"#utility.yul\":645:678   */\n      tag_104\n        /* \"#utility.yul\":672:677   */\n      dup2\n        /* \"#utility.yul\":645:678   */\n      tag_83\n      jump\t// in\n    tag_104:\n        /* \"#utility.yul\":545:684   */\n      swap3\n      swap2\n      pop\n      pop\n      jump\t// out\n        /* \"#utility.yul\":690:1164   */\n    tag_8:\n        /* \"#utility.yul\":758:764   */\n      0x00\n        /* \"#utility.yul\":766:772   */\n      dup1\n        /* \"#utility.yul\":815:817   */\n      0x40\n        /* \"#utility.yul\":803:812   */\n      dup4\n        /* \"#utility.yul\":794:801   */\n      dup6\n        /* \"#utility.yul\":790:813   */\n      sub\n        /* \"#utility.yul\":786:818   */\n      slt\n        /* \"#utility.yul\":783:902   */\n      iszero\n      tag_106\n      jumpi\n        /* \"#utility.yul\":821:900   */\n      tag_107\n      tag_80\n      jump\t// in\n    tag_107:\n        /* \"#utility.yul\":783:902   */\n    tag_106:\n        /* \"#utility.yul\":941:942   */\n      0x00\n        /* \"#utility.yul\":966:1019   */\n      tag_108\n        /* \"#utility.yul\":1011:1018   */\n      dup6\n        /* \"#utility.yul\":1002:1008   */\n      dup3\n        /* \"#utility.yul\":991:1000   */\n      dup7\n        /* \"#utility.yul\":987:1009   */\n      add\n        /* \"#utility.yul\":966:1019   */\n      tag_84\n      jump\t// in\n    tag_108:\n        /* \"#utility.yul\":956:1019   */\n      swap3\n      pop\n        /* \"#utility.yul\":912:1029   */\n      pop\n        /* \"#utility.yul\":1068:1070   */\n      0x20\n        /* \"#utility.yul\":1094:1147   */\n      tag_109\n        /* \"#utility.yul\":1139:1146   */\n      dup6\n        /* \"#utility.yul\":1130:1136   */\n      dup3\n        /* \"#utility.yul\":1119:1128   */\n      dup7\n        /* \"#utility.yul\":1115:1137   */\n      add\n        /* \"#utility.yul\":1094:1147   */\n      tag_84\n      jump\t// in\n    tag_109:\n        /* \"#utility.yul\":1084:1147   */\n      swap2\n      pop\n        /* \"#utility.yul\":1039:1157   */\n      pop\n        /* \"#utility.yul\":690:1164   */\n      swap3\n      pop\n      swap3\n      swap1\n      pop\n      jump\t// out\n        /* \"#utility.yul\":1170:1288   */\n    tag_85:\n        /* \"#utility.yul\":1257:1281   */\n      tag_111\n        /* \"#utility.yul\":1275:1280   */\n      dup2\n        /* \"#utility.yul\":1257:1281   */\n      tag_82\n      jump\t// in\n    tag_111:\n        /* \"#utility.yul\":1252:1255   */\n      dup3\n        /* \"#utility.yul\":1245:1282   */\n      mstore\n        /* \"#utility.yul\":1170:1288   */\n      pop\n      pop\n      jump\t// out\n        /* \"#utility.yul\":1294:1516   */\n    tag_11:\n        /* \"#utility.yul\":1387:1391   */\n      0x00\n        /* \"#utility.yul\":1425:1427   */\n      0x20\n        /* \"#utility.yul\":1414:1423   */\n      dup3\n        /* \"#utility.yul\":1410:1428   */\n      add\n        /* \"#utility.yul\":1402:1428   */\n      swap1\n      pop\n        /* \"#utility.yul\":1438:1509   */\n      tag_113\n        /* \"#utility.yul\":1506:1507   */\n      0x00\n        /* \"#utility.yul\":1495:1504   */\n      dup4\n        /* \"#utility.yul\":1491:1508   */\n      add\n        /* \"#utility.yul\":1482:1488   */\n      dup5\n        /* \"#utility.yul\":1438:1509   */\n      tag_85\n      jump\t// in\n    tag_113:\n        /* \"#utility.yul\":1294:1516   */\n      swap3\n      swap2\n      pop\n      pop\n      jump\t// out\n        /* \"#utility.yul\":1522:1691   */\n    tag_86:\n        /* \"#utility.yul\":1606:1617   */\n      0x00\n        /* \"#utility.yul\":1640:1646   */\n      dup3\n        /* \"#utility.yul\":1635:1638   */\n      dup3\n        /* \"#utility.yul\":1628:1647   */\n      mstore\n        /* \"#utility.yul\":1680:1684   */\n      0x20\n        /* \"#utility.yul\":1675:1678   */\n      dup3\n        /* \"#utility.yul\":1671:1685   */\n      add\n        /* \"#utility.yul\":1656:1685   */\n      swap1\n      pop\n        /* \"#utility.yul\":1522:1691   */\n      swap3\n      swap2\n      pop\n      pop\n      jump\t// out\n        /* \"#utility.yul\":1697:1929   */\n    tag_87:\n        /* \"#utility.yul\":1837:1871   */\n      0x4f2076616c6f72207472616e7366657269646f2064657665207365722070656c\n        /* \"#utility.yul\":1833:1834   */\n      0x00\n        /* \"#utility.yul\":1825:1831   */\n      dup3\n        /* \"#utility.yul\":1821:1835   */\n      add\n        /* \"#utility.yul\":1814:1872   */\n      mstore\n        /* \"#utility.yul\":1906:1921   */\n      0x6f206d656e6f7320312077656900000000000000000000000000000000000000\n        /* \"#utility.yul\":1901:1903   */\n      0x20\n        /* \"#utility.yul\":1893:1899   */\n      dup3\n        /* \"#utility.yul\":1889:1904   */\n      add\n        /* \"#utility.yul\":1882:1922   */\n      mstore\n        /* \"#utility.yul\":1697:1929   */\n      pop\n      jump\t// out\n        /* \"#utility.yul\":1935:2301   */\n    tag_88:\n        /* \"#utility.yul\":2077:2080   */\n      0x00\n        /* \"#utility.yul\":2098:2165   */\n      tag_117\n        /* \"#utility.yul\":2162:2164   */\n      0x2d\n        /* \"#utility.yul\":2157:2160   */\n      dup4\n        /* \"#utility.yul\":2098:2165   */\n      tag_86\n      jump\t// in\n    tag_117:\n        /* \"#utility.yul\":2091:2165   */\n      swap2\n      pop\n        /* \"#utility.yul\":2174:2267   */\n      tag_118\n        /* \"#utility.yul\":2263:2266   */\n      dup3\n        /* \"#utility.yul\":2174:2267   */\n      tag_87\n      jump\t// in\n    tag_118:\n        /* \"#utility.yul\":2292:2294   */\n      0x40\n        /* \"#utility.yul\":2287:2290   */\n      dup3\n        /* \"#utility.yul\":2283:2295   */\n      add\n        /* \"#utility.yul\":2276:2295   */\n      swap1\n      pop\n        /* \"#utility.yul\":1935:2301   */\n      swap2\n      swap1\n      pop\n      jump\t// out\n        /* \"#utility.yul\":2307:2726   */\n    tag_27:\n        /* \"#utility.yul\":2473:2477   */\n      0x00\n        /* \"#utility.yul\":2511:2513   */\n      0x20\n        /* \"#utility.yul\":2500:2509   */\n      dup3\n        /* \"#utility.yul\":2496:2514   */\n      add\n        /* \"#utility.yul\":2488:2514   */\n      swap1\n      pop\n        /* \"#utility.yul\":2560:2569   */\n      dup2\n        /* \"#utility.yul\":2554:2558   */\n      dup2\n        /* \"#utility.yul\":2550:2570   */\n      sub\n        /* \"#utility.yul\":2546:2547   */\n      0x00\n        /* \"#utility.yul\":2535:2544   */\n      dup4\n        /* \"#utility.yul\":2531:2548   */\n      add\n        /* \"#utility.yul\":2524:2571   */\n      mstore\n        /* \"#utility.yul\":2588:2719   */\n      tag_120\n        /* \"#utility.yul\":2714:2718   */\n      dup2\n        /* \"#utility.yul\":2588:2719   */\n      tag_88\n      jump\t// in\n    tag_120:\n        /* \"#utility.yul\":2580:2719   */\n      swap1\n      pop\n        /* \"#utility.yul\":2307:2726   */\n      swap2\n      swap1\n      pop\n      jump\t// out\n        /* \"#utility.yul\":2732:2914   */\n    tag_89:\n        /* \"#utility.yul\":2872:2906   */\n      0x46616c686120616f20656e76696172207765692070617261206f206f776e6572\n        /* \"#utility.yul\":2868:2869   */\n      0x00\n        /* \"#utility.yul\":2860:2866   */\n      dup3\n        /* \"#utility.yul\":2856:2870   */\n      add\n        /* \"#utility.yul\":2849:2907   */\n      mstore\n        /* \"#utility.yul\":2732:2914   */\n      pop\n      jump\t// out\n        /* \"#utility.yul\":2920:3286   */\n    tag_90:\n        /* \"#utility.yul\":3062:3065   */\n      0x00\n        /* \"#utility.yul\":3083:3150   */\n      tag_123\n        /* \"#utility.yul\":3147:3149   */\n      0x20\n        /* \"#utility.yul\":3142:3145   */\n      dup4\n        /* \"#utility.yul\":3083:3150   */\n      tag_86\n      jump\t// in\n    tag_123:\n        /* \"#utility.yul\":3076:3150   */\n      swap2\n      pop\n        /* \"#utility.yul\":3159:3252   */\n      tag_124\n        /* \"#utility.yul\":3248:3251   */\n      dup3\n        /* \"#utility.yul\":3159:3252   */\n      tag_89\n      jump\t// in\n    tag_124:\n        /* \"#utility.yul\":3277:3279   */\n      0x20\n        /* \"#utility.yul\":3272:3275   */\n      dup3\n        /* \"#utility.yul\":3268:3280   */\n      add\n        /* \"#utility.yul\":3261:3280   */\n      swap1\n      pop\n        /* \"#utility.yul\":2920:3286   */\n      swap2\n      swap1\n      pop\n      jump\t// out\n        /* \"#utility.yul\":3292:3711   */\n    tag_31:\n        /* \"#utility.yul\":3458:3462   */\n      0x00\n        /* \"#utility.yul\":3496:3498   */\n      0x20\n        /* \"#utility.yul\":3485:3494   */\n      dup3\n        /* \"#utility.yul\":3481:3499   */\n      add\n        /* \"#utility.yul\":3473:3499   */\n      swap1\n      pop\n        /* \"#utility.yul\":3545:3554   */\n      dup2\n        /* \"#utility.yul\":3539:3543   */\n      dup2\n        /* \"#utility.yul\":3535:3555   */\n      sub\n        /* \"#utility.yul\":3531:3532   */\n      0x00\n        /* \"#utility.yul\":3520:3529   */\n      dup4\n        /* \"#utility.yul\":3516:3533   */\n      add\n        /* \"#utility.yul\":3509:3556   */\n      mstore\n        /* \"#utility.yul\":3573:3704   */\n      tag_126\n        /* \"#utility.yul\":3699:3703   */\n      dup2\n        /* \"#utility.yul\":3573:3704   */\n      tag_90\n      jump\t// in\n    tag_126:\n        /* \"#utility.yul\":3565:3704   */\n      swap1\n      pop\n        /* \"#utility.yul\":3292:3711   */\n      swap2\n      swap1\n      pop\n      jump\t// out\n        /* \"#utility.yul\":3717:3897   */\n    tag_91:\n        /* \"#utility.yul\":3765:3842   */\n      0x4e487b7100000000000000000000000000000000000000000000000000000000\n        /* \"#utility.yul\":3762:3763   */\n      0x00\n        /* \"#utility.yul\":3755:3843   */\n      mstore\n        /* \"#utility.yul\":3862:3866   */\n      0x11\n        /* \"#utility.yul\":3859:3860   */\n      0x04\n        /* \"#utility.yul\":3852:3867   */\n      mstore\n        /* \"#utility.yul\":3886:3890   */\n      0x24\n        /* \"#utility.yul\":3883:3884   */\n      0x00\n        /* \"#utility.yul\":3876:3891   */\n      revert\n        /* \"#utility.yul\":3903:4097   */\n    tag_33:\n        /* \"#utility.yul\":3943:3947   */\n      0x00\n        /* \"#utility.yul\":3963:3983   */\n      tag_129\n        /* \"#utility.yul\":3981:3982   */\n      dup3\n        /* \"#utility.yul\":3963:3983   */\n      tag_82\n      jump\t// in\n    tag_129:\n        /* \"#utility.yul\":3958:3983   */\n      swap2\n      pop\n        /* \"#utility.yul\":3997:4017   */\n      tag_130\n        /* \"#utility.yul\":4015:4016   */\n      dup4\n        /* \"#utility.yul\":3997:4017   */\n      tag_82\n      jump\t// in\n    tag_130:\n        /* \"#utility.yul\":3992:4017   */\n      swap3\n      pop\n        /* \"#utility.yul\":4041:4042   */\n      dup3\n        /* \"#utility.yul\":4038:4039   */\n      dup3\n        /* \"#utility.yul\":4034:4043   */\n      sub\n        /* \"#utility.yul\":4026:4043   */\n      swap1\n      pop\n        /* \"#utility.yul\":4065:4066   */\n      dup2\n        /* \"#utility.yul\":4059:4063   */\n      dup2\n        /* \"#utility.yul\":4056:4067   */\n      gt\n        /* \"#utility.yul\":4053:4090   */\n      iszero\n      tag_131\n      jumpi\n        /* \"#utility.yul\":4070:4088   */\n      tag_132\n      tag_91\n      jump\t// in\n    tag_132:\n        /* \"#utility.yul\":4053:4090   */\n    tag_131:\n        /* \"#utility.yul\":3903:4097   */\n      swap3\n      swap2\n      pop\n      pop\n      jump\t// out\n        /* \"#utility.yul\":4103:4285   */\n    tag_92:\n        /* \"#utility.yul\":4243:4277   */\n      0x46616c686120616f20656e76696172207765692070617261206f207061796565\n        /* \"#utility.yul\":4239:4240   */\n      0x00\n        /* \"#utility.yul\":4231:4237   */\n      dup3\n        /* \"#utility.yul\":4227:4241   */\n      add\n        /* \"#utility.yul\":4220:4278   */\n      mstore\n        /* \"#utility.yul\":4103:4285   */\n      pop\n      jump\t// out\n        /* \"#utility.yul\":4291:4657   */\n    tag_93:\n        /* \"#utility.yul\":4433:4436   */\n      0x00\n        /* \"#utility.yul\":4454:4521   */\n      tag_135\n        /* \"#utility.yul\":4518:4520   */\n      0x20\n        /* \"#utility.yul\":4513:4516   */\n      dup4\n        /* \"#utility.yul\":4454:4521   */\n      tag_86\n      jump\t// in\n    tag_135:\n        /* \"#utility.yul\":4447:4521   */\n      swap2\n      pop\n        /* \"#utility.yul\":4530:4623   */\n      tag_136\n        /* \"#utility.yul\":4619:4622   */\n      dup3\n        /* \"#utility.yul\":4530:4623   */\n      tag_92\n      jump\t// in\n    tag_136:\n        /* \"#utility.yul\":4648:4650   */\n      0x20\n        /* \"#utility.yul\":4643:4646   */\n      dup3\n        /* \"#utility.yul\":4639:4651   */\n      add\n        /* \"#utility.yul\":4632:4651   */\n      swap1\n      pop\n        /* \"#utility.yul\":4291:4657   */\n      swap2\n      swap1\n      pop\n      jump\t// out\n        /* \"#utility.yul\":4663:5082   */\n    tag_37:\n        /* \"#utility.yul\":4829:4833   */\n      0x00\n        /* \"#utility.yul\":4867:4869   */\n      0x20\n        /* \"#utility.yul\":4856:4865   */\n      dup3\n        /* \"#utility.yul\":4852:4870   */\n      add\n        /* \"#utility.yul\":4844:4870   */\n      swap1\n      pop\n        /* \"#utility.yul\":4916:4925   */\n      dup2\n        /* \"#utility.yul\":4910:4914   */\n      dup2\n        /* \"#utility.yul\":4906:4926   */\n      sub\n        /* \"#utility.yul\":4902:4903   */\n      0x00\n        /* \"#utility.yul\":4891:4900   */\n      dup4\n        /* \"#utility.yul\":4887:4904   */\n      add\n        /* \"#utility.yul\":4880:4927   */\n      mstore\n        /* \"#utility.yul\":4944:5075   */\n      tag_138\n        /* \"#utility.yul\":5070:5074   */\n      dup2\n        /* \"#utility.yul\":4944:5075   */\n      tag_93\n      jump\t// in\n    tag_138:\n        /* \"#utility.yul\":4936:5075   */\n      swap1\n      pop\n        /* \"#utility.yul\":4663:5082   */\n      swap2\n      swap1\n      pop\n      jump\t// out\n        /* \"#utility.yul\":5088:5268   */\n    tag_94:\n        /* \"#utility.yul\":5136:5213   */\n      0x4e487b7100000000000000000000000000000000000000000000000000000000\n        /* \"#utility.yul\":5133:5134   */\n      0x00\n        /* \"#utility.yul\":5126:5214   */\n      mstore\n        /* \"#utility.yul\":5233:5237   */\n      0x12\n        /* \"#utility.yul\":5230:5231   */\n      0x04\n        /* \"#utility.yul\":5223:5238   */\n      mstore\n        /* \"#utility.yul\":5257:5261   */\n      0x24\n        /* \"#utility.yul\":5254:5255   */\n      0x00\n        /* \"#utility.yul\":5247:5262   */\n      revert\n        /* \"#utility.yul\":5274:5459   */\n    tag_40:\n        /* \"#utility.yul\":5314:5315   */\n      0x00\n        /* \"#utility.yul\":5331:5351   */\n      tag_141\n        /* \"#utility.yul\":5349:5350   */\n      dup3\n        /* \"#utility.yul\":5331:5351   */\n      tag_82\n      jump\t// in\n    tag_141:\n        /* \"#utility.yul\":5326:5351   */\n      swap2\n      pop\n        /* \"#utility.yul\":5365:5385   */\n      tag_142\n        /* \"#utility.yul\":5383:5384   */\n      dup4\n        /* \"#utility.yul\":5365:5385   */\n      tag_82\n      jump\t// in\n    tag_142:\n        /* \"#utility.yul\":5360:5385   */\n      swap3\n      pop\n        /* \"#utility.yul\":5404:5405   */\n      dup3\n        /* \"#utility.yul\":5394:5429   */\n      tag_143\n      jumpi\n        /* \"#utility.yul\":5409:5427   */\n      tag_144\n      tag_94\n      jump\t// in\n    tag_144:\n        /* \"#utility.yul\":5394:5429   */\n    tag_143:\n        /* \"#utility.yul\":5451:5452   */\n      dup3\n        /* \"#utility.yul\":5448:5449   */\n      dup3\n        /* \"#utility.yul\":5444:5453   */\n      div\n        /* \"#utility.yul\":5439:5453   */\n      swap1\n      pop\n        /* \"#utility.yul\":5274:5459   */\n      swap3\n      swap2\n      pop\n      pop\n      jump\t// out\n        /* \"#utility.yul\":5465:5656   */\n    tag_65:\n        /* \"#utility.yul\":5505:5508   */\n      0x00\n        /* \"#utility.yul\":5524:5544   */\n      tag_146\n        /* \"#utility.yul\":5542:5543   */\n      dup3\n        /* \"#utility.yul\":5524:5544   */\n      tag_82\n      jump\t// in\n    tag_146:\n        /* \"#utility.yul\":5519:5544   */\n      swap2\n      pop\n        /* \"#utility.yul\":5558:5578   */\n      tag_147\n        /* \"#utility.yul\":5576:5577   */\n      dup4\n        /* \"#utility.yul\":5558:5578   */\n      tag_82\n      jump\t// in\n    tag_147:\n        /* \"#utility.yul\":5553:5578   */\n      swap3\n      pop\n        /* \"#utility.yul\":5601:5602   */\n      dup3\n        /* \"#utility.yul\":5598:5599   */\n      dup3\n        /* \"#utility.yul\":5594:5603   */\n      add\n        /* \"#utility.yul\":5587:5603   */\n      swap1\n      pop\n        /* \"#utility.yul\":5622:5625   */\n      dup1\n        /* \"#utility.yul\":5619:5620   */\n      dup3\n        /* \"#utility.yul\":5616:5626   */\n      gt\n        /* \"#utility.yul\":5613:5649   */\n      iszero\n      tag_148\n      jumpi\n        /* \"#utility.yul\":5629:5647   */\n      tag_149\n      tag_91\n      jump\t// in\n    tag_149:\n        /* \"#utility.yul\":5613:5649   */\n    tag_148:\n        /* \"#utility.yul\":5465:5656   */\n      swap3\n      swap2\n      pop\n      pop\n      jump\t// out\n        /* \"#utility.yul\":5662:6072   */\n    tag_78:\n        /* \"#utility.yul\":5702:5709   */\n      0x00\n        /* \"#utility.yul\":5725:5745   */\n      tag_151\n        /* \"#utility.yul\":5743:5744   */\n      dup3\n        /* \"#utility.yul\":5725:5745   */\n      tag_82\n      jump\t// in\n    tag_151:\n        /* \"#utility.yul\":5720:5745   */\n      swap2\n      pop\n        /* \"#utility.yul\":5759:5779   */\n      tag_152\n        /* \"#utility.yul\":5777:5778   */\n      dup4\n        /* \"#utility.yul\":5759:5779   */\n      tag_82\n      jump\t// in\n    tag_152:\n        /* \"#utility.yul\":5754:5779   */\n      swap3\n      pop\n        /* \"#utility.yul\":5814:5815   */\n      dup3\n        /* \"#utility.yul\":5811:5812   */\n      dup3\n        /* \"#utility.yul\":5807:5816   */\n      mul\n        /* \"#utility.yul\":5836:5866   */\n      tag_153\n        /* \"#utility.yul\":5854:5865   */\n      dup2\n        /* \"#utility.yul\":5836:5866   */\n      tag_82\n      jump\t// in\n    tag_153:\n        /* \"#utility.yul\":5825:5866   */\n      swap2\n      pop\n        /* \"#utility.yul\":6015:6016   */\n      dup3\n        /* \"#utility.yul\":6006:6013   */\n      dup3\n        /* \"#utility.yul\":6002:6017   */\n      div\n        /* \"#utility.yul\":5999:6000   */\n      dup5\n        /* \"#utility.yul\":5996:6018   */\n      eq\n        /* \"#utility.yul\":5976:5977   */\n      dup4\n        /* \"#utility.yul\":5969:5978   */\n      iszero\n        /* \"#utility.yul\":5949:6032   */\n      or\n        /* \"#utility.yul\":5926:6065   */\n      tag_154\n      jumpi\n        /* \"#utility.yul\":6045:6063   */\n      tag_155\n      tag_91\n      jump\t// in\n    tag_155:\n        /* \"#utility.yul\":5926:6065   */\n    tag_154:\n        /* \"#utility.yul\":5710:6072   */\n      pop\n        /* \"#utility.yul\":5662:6072   */\n      swap3\n      swap2\n      pop\n      pop\n      jump\t// out\n\n    auxdata: 0xa26469706673582212203c45ecc03cd1e9e776afe28b5094b9a80478cde41d7682907edd6c31d62ddd3f64736f6c63430008110033\n}\n",
				"bytecode": {
					"linkReferences": {},
					"object": "608060405234801561001057600080fd5b50336000806101000a81548173ffffffffffffffffffffffffffffffffffffffff021916908373ffffffffffffffffffffffffffffffffffffffff160217905550610a8b806100606000396000f3fe60806040526004361061003f5760003560e01c80631bdbe55d1461004457806372f214b814610074578063a112c5da146100a4578063fbf188a2146100d4575b600080fd5b61005e60048036038101906100599190610737565b610104565b60405161006b9190610786565b60405180910390f35b61008e60048036038101906100899190610737565b610282565b60405161009b9190610786565b60405180910390f35b6100be60048036038101906100b99190610737565b610400565b6040516100cb9190610786565b60405180910390f35b6100ee60048036038101906100e99190610737565b61057e565b6040516100fb9190610786565b60405180910390f35b600080339050600134101561014e576040517f08c379a000000000000000000000000000000000000000000000000000000000815260040161014590610824565b60405180910390fd5b60008060009054906101000a900473ffffffffffffffffffffffffffffffffffffffff1673ffffffffffffffffffffffffffffffffffffffff166108fc60019081150290604051600060405180830381858888f193505050509050806101e9576040517f08c379a00000000000000000000000000000000000000000000000000000000081526004016101e090610890565b60405180910390fd5b8173ffffffffffffffffffffffffffffffffffffffff166108fc60013461021091906108df565b9081150290604051600060405180830381858888f1935050505090508061026c576040517f08c379a00000000000000000000000000000000000000000000000000000000081526004016102639061095f565b60405180910390fd5b838561027891906109ae565b9250505092915050565b60008033905060013410156102cc576040517f08c379a00000000000000000000000000000000000000000000000000000000081526004016102c390610824565b60405180910390fd5b60008060009054906101000a900473ffffffffffffffffffffffffffffffffffffffff1673ffffffffffffffffffffffffffffffffffffffff166108fc60019081150290604051600060405180830381858888f19350505050905080610367576040517f08c379a000000000000000000000000000000000000000000000000000000000815260040161035e90610890565b60405180910390fd5b8173ffffffffffffffffffffffffffffffffffffffff166108fc60013461038e91906108df565b9081150290604051600060405180830381858888f193505050509050806103ea576040517f08c379a00000000000000000000000000000000000000000000000000000000081526004016103e19061095f565b60405180910390fd5b83856103f691906108df565b9250505092915050565b600080339050600134101561044a576040517f08c379a000000000000000000000000000000000000000000000000000000000815260040161044190610824565b60405180910390fd5b60008060009054906101000a900473ffffffffffffffffffffffffffffffffffffffff1673ffffffffffffffffffffffffffffffffffffffff166108fc60019081150290604051600060405180830381858888f193505050509050806104e5576040517f08c379a00000000000000000000000000000000000000000000000000000000081526004016104dc90610890565b60405180910390fd5b8173ffffffffffffffffffffffffffffffffffffffff166108fc60013461050c91906108df565b9081150290604051600060405180830381858888f19350505050905080610568576040517f08c379a000000000000000000000000000000000000000000000000000000000815260040161055f9061095f565b60405180910390fd5b838561057491906109df565b9250505092915050565b60008033905060013410156105c8576040517f08c379a00000000000000000000000000000000000000000000000000000000081526004016105bf90610824565b60405180910390fd5b60008060009054906101000a900473ffffffffffffffffffffffffffffffffffffffff1673ffffffffffffffffffffffffffffffffffffffff166108fc60019081150290604051600060405180830381858888f19350505050905080610663576040517f08c379a000000000000000000000000000000000000000000000000000000000815260040161065a90610890565b60405180910390fd5b8173ffffffffffffffffffffffffffffffffffffffff166108fc60013461068a91906108df565b9081150290604051600060405180830381858888f193505050509050806106e6576040517f08c379a00000000000000000000000000000000000000000000000000000000081526004016106dd9061095f565b60405180910390fd5b83856106f29190610a13565b9250505092915050565b600080fd5b6000819050919050565b61071481610701565b811461071f57600080fd5b50565b6000813590506107318161070b565b92915050565b6000806040838503121561074e5761074d6106fc565b5b600061075c85828601610722565b925050602061076d85828601610722565b9150509250929050565b61078081610701565b82525050565b600060208201905061079b6000830184610777565b92915050565b600082825260208201905092915050565b7f4f2076616c6f72207472616e7366657269646f2064657665207365722070656c60008201527f6f206d656e6f7320312077656900000000000000000000000000000000000000602082015250565b600061080e602d836107a1565b9150610819826107b2565b604082019050919050565b6000602082019050818103600083015261083d81610801565b9050919050565b7f46616c686120616f20656e76696172207765692070617261206f206f776e6572600082015250565b600061087a6020836107a1565b915061088582610844565b602082019050919050565b600060208201905081810360008301526108a98161086d565b9050919050565b7f4e487b7100000000000000000000000000000000000000000000000000000000600052601160045260246000fd5b60006108ea82610701565b91506108f583610701565b925082820390508181111561090d5761090c6108b0565b5b92915050565b7f46616c686120616f20656e76696172207765692070617261206f207061796565600082015250565b60006109496020836107a1565b915061095482610913565b602082019050919050565b600060208201905081810360008301526109788161093c565b9050919050565b7f4e487b7100000000000000000000000000000000000000000000000000000000600052601260045260246000fd5b60006109b982610701565b91506109c483610701565b9250826109d4576109d361097f565b5b828204905092915050565b60006109ea82610701565b91506109f583610701565b9250828201905080821115610a0d57610a0c6108b0565b5b92915050565b6000610a1e82610701565b9150610a2983610701565b9250828202610a3781610701565b91508282048414831517610a4e57610a4d6108b0565b5b509291505056fea26469706673582212203c45ecc03cd1e9e776afe28b5094b9a80478cde41d7682907edd6c31d62ddd3f64736f6c63430008110033",
					"opcodes": "PUSH1 0x80 PUSH1 0x40 MSTORE CALLVALUE DUP1 ISZERO PUSH2 0x10 JUMPI PUSH1 0x0 DUP1 REVERT JUMPDEST POP CALLER PUSH1 0x0 DUP1 PUSH2 0x100 EXP DUP2 SLOAD DUP2 PUSH20 0xFFFFFFFFFFFFFFFFFFFFFFFFFFFFFFFFFFFFFFFF MUL NOT AND SWAP1 DUP4 PUSH20 0xFFFFFFFFFFFFFFFFFFFFFFFFFFFFFFFFFFFFFFFF AND MUL OR SWAP1 SSTORE POP PUSH2 0xA8B DUP1 PUSH2 0x60 PUSH1 0x0 CODECOPY PUSH1 0x0 RETURN INVALID PUSH1 0x80 PUSH1 0x40 MSTORE PUSH1 0x4 CALLDATASIZE LT PUSH2 0x3F JUMPI PUSH1 0x0 CALLDATALOAD PUSH1 0xE0 SHR DUP1 PUSH4 0x1BDBE55D EQ PUSH2 0x44 JUMPI DUP1 PUSH4 0x72F214B8 EQ PUSH2 0x74 JUMPI DUP1 PUSH4 0xA112C5DA EQ PUSH2 0xA4 JUMPI DUP1 PUSH4 0xFBF188A2 EQ PUSH2 0xD4 JUMPI JUMPDEST PUSH1 0x0 DUP1 REVERT JUMPDEST PUSH2 0x5E PUSH1 0x4 DUP1 CALLDATASIZE SUB DUP2 ADD SWAP1 PUSH2 0x59 SWAP2 SWAP1 PUSH2 0x737 JUMP JUMPDEST PUSH2 0x104 JUMP JUMPDEST PUSH1 0x40 MLOAD PUSH2 0x6B SWAP2 SWAP1 PUSH2 0x786 JUMP JUMPDEST PUSH1 0x40 MLOAD DUP1 SWAP2 SUB SWAP1 RETURN JUMPDEST PUSH2 0x8E PUSH1 0x4 DUP1 CALLDATASIZE SUB DUP2 ADD SWAP1 PUSH2 0x89 SWAP2 SWAP1 PUSH2 0x737 JUMP JUMPDEST PUSH2 0x282 JUMP JUMPDEST PUSH1 0x40 MLOAD PUSH2 0x9B SWAP2 SWAP1 PUSH2 0x786 JUMP JUMPDEST PUSH1 0x40 MLOAD DUP1 SWAP2 SUB SWAP1 RETURN JUMPDEST PUSH2 0xBE PUSH1 0x4 DUP1 CALLDATASIZE SUB DUP2 ADD SWAP1 PUSH2 0xB9 SWAP2 SWAP1 PUSH2 0x737 JUMP JUMPDEST PUSH2 0x400 JUMP JUMPDEST PUSH1 0x40 MLOAD PUSH2 0xCB SWAP2 SWAP1 PUSH2 0x786 JUMP JUMPDEST PUSH1 0x40 MLOAD DUP1 SWAP2 SUB SWAP1 RETURN JUMPDEST PUSH2 0xEE PUSH1 0x4 DUP1 CALLDATASIZE SUB DUP2 ADD SWAP1 PUSH2 0xE9 SWAP2 SWAP1 PUSH2 0x737 JUMP JUMPDEST PUSH2 0x57E JUMP JUMPDEST PUSH1 0x40 MLOAD PUSH2 0xFB SWAP2 SWAP1 PUSH2 0x786 JUMP JUMPDEST PUSH1 0x40 MLOAD DUP1 SWAP2 SUB SWAP1 RETURN JUMPDEST PUSH1 0x0 DUP1 CALLER SWAP1 POP PUSH1 0x1 CALLVALUE LT ISZERO PUSH2 0x14E JUMPI PUSH1 0x40 MLOAD PUSH32 0x8C379A000000000000000000000000000000000000000000000000000000000 DUP2 MSTORE PUSH1 0x4 ADD PUSH2 0x145 SWAP1 PUSH2 0x824 JUMP JUMPDEST PUSH1 0x40 MLOAD DUP1 SWAP2 SUB SWAP1 REVERT JUMPDEST PUSH1 0x0 DUP1 PUSH1 0x0 SWAP1 SLOAD SWAP1 PUSH2 0x100 EXP SWAP1 DIV PUSH20 0xFFFFFFFFFFFFFFFFFFFFFFFFFFFFFFFFFFFFFFFF AND PUSH20 0xFFFFFFFFFFFFFFFFFFFFFFFFFFFFFFFFFFFFFFFF AND PUSH2 0x8FC PUSH1 0x1 SWAP1 DUP2 ISZERO MUL SWAP1 PUSH1 0x40 MLOAD PUSH1 0x0 PUSH1 0x40 MLOAD DUP1 DUP4 SUB DUP2 DUP6 DUP9 DUP9 CALL SWAP4 POP POP POP POP SWAP1 POP DUP1 PUSH2 0x1E9 JUMPI PUSH1 0x40 MLOAD PUSH32 0x8C379A000000000000000000000000000000000000000000000000000000000 DUP2 MSTORE PUSH1 0x4 ADD PUSH2 0x1E0 SWAP1 PUSH2 0x890 JUMP JUMPDEST PUSH1 0x40 MLOAD DUP1 SWAP2 SUB SWAP1 REVERT JUMPDEST DUP2 PUSH20 0xFFFFFFFFFFFFFFFFFFFFFFFFFFFFFFFFFFFFFFFF AND PUSH2 0x8FC PUSH1 0x1 CALLVALUE PUSH2 0x210 SWAP2 SWAP1 PUSH2 0x8DF JUMP JUMPDEST SWAP1 DUP2 ISZERO MUL SWAP1 PUSH1 0x40 MLOAD PUSH1 0x0 PUSH1 0x40 MLOAD DUP1 DUP4 SUB DUP2 DUP6 DUP9 DUP9 CALL SWAP4 POP POP POP POP SWAP1 POP DUP1 PUSH2 0x26C JUMPI PUSH1 0x40 MLOAD PUSH32 0x8C379A000000000000000000000000000000000000000000000000000000000 DUP2 MSTORE PUSH1 0x4 ADD PUSH2 0x263 SWAP1 PUSH2 0x95F JUMP JUMPDEST PUSH1 0x40 MLOAD DUP1 SWAP2 SUB SWAP1 REVERT JUMPDEST DUP4 DUP6 PUSH2 0x278 SWAP2 SWAP1 PUSH2 0x9AE JUMP JUMPDEST SWAP3 POP POP POP SWAP3 SWAP2 POP POP JUMP JUMPDEST PUSH1 0x0 DUP1 CALLER SWAP1 POP PUSH1 0x1 CALLVALUE LT ISZERO PUSH2 0x2CC JUMPI PUSH1 0x40 MLOAD PUSH32 0x8C379A000000000000000000000000000000000000000000000000000000000 DUP2 MSTORE PUSH1 0x4 ADD PUSH2 0x2C3 SWAP1 PUSH2 0x824 JUMP JUMPDEST PUSH1 0x40 MLOAD DUP1 SWAP2 SUB SWAP1 REVERT JUMPDEST PUSH1 0x0 DUP1 PUSH1 0x0 SWAP1 SLOAD SWAP1 PUSH2 0x100 EXP SWAP1 DIV PUSH20 0xFFFFFFFFFFFFFFFFFFFFFFFFFFFFFFFFFFFFFFFF AND PUSH20 0xFFFFFFFFFFFFFFFFFFFFFFFFFFFFFFFFFFFFFFFF AND PUSH2 0x8FC PUSH1 0x1 SWAP1 DUP2 ISZERO MUL SWAP1 PUSH1 0x40 MLOAD PUSH1 0x0 PUSH1 0x40 MLOAD DUP1 DUP4 SUB DUP2 DUP6 DUP9 DUP9 CALL SWAP4 POP POP POP POP SWAP1 POP DUP1 PUSH2 0x367 JUMPI PUSH1 0x40 MLOAD PUSH32 0x8C379A000000000000000000000000000000000000000000000000000000000 DUP2 MSTORE PUSH1 0x4 ADD PUSH2 0x35E SWAP1 PUSH2 0x890 JUMP JUMPDEST PUSH1 0x40 MLOAD DUP1 SWAP2 SUB SWAP1 REVERT JUMPDEST DUP2 PUSH20 0xFFFFFFFFFFFFFFFFFFFFFFFFFFFFFFFFFFFFFFFF AND PUSH2 0x8FC PUSH1 0x1 CALLVALUE PUSH2 0x38E SWAP2 SWAP1 PUSH2 0x8DF JUMP JUMPDEST SWAP1 DUP2 ISZERO MUL SWAP1 PUSH1 0x40 MLOAD PUSH1 0x0 PUSH1 0x40 MLOAD DUP1 DUP4 SUB DUP2 DUP6 DUP9 DUP9 CALL SWAP4 POP POP POP POP SWAP1 POP DUP1 PUSH2 0x3EA JUMPI PUSH1 0x40 MLOAD PUSH32 0x8C379A000000000000000000000000000000000000000000000000000000000 DUP2 MSTORE PUSH1 0x4 ADD PUSH2 0x3E1 SWAP1 PUSH2 0x95F JUMP JUMPDEST PUSH1 0x40 MLOAD DUP1 SWAP2 SUB SWAP1 REVERT JUMPDEST DUP4 DUP6 PUSH2 0x3F6 SWAP2 SWAP1 PUSH2 0x8DF JUMP JUMPDEST SWAP3 POP POP POP SWAP3 SWAP2 POP POP JUMP JUMPDEST PUSH1 0x0 DUP1 CALLER SWAP1 POP PUSH1 0x1 CALLVALUE LT ISZERO PUSH2 0x44A JUMPI PUSH1 0x40 MLOAD PUSH32 0x8C379A000000000000000000000000000000000000000000000000000000000 DUP2 MSTORE PUSH1 0x4 ADD PUSH2 0x441 SWAP1 PUSH2 0x824 JUMP JUMPDEST PUSH1 0x40 MLOAD DUP1 SWAP2 SUB SWAP1 REVERT JUMPDEST PUSH1 0x0 DUP1 PUSH1 0x0 SWAP1 SLOAD SWAP1 PUSH2 0x100 EXP SWAP1 DIV PUSH20 0xFFFFFFFFFFFFFFFFFFFFFFFFFFFFFFFFFFFFFFFF AND PUSH20 0xFFFFFFFFFFFFFFFFFFFFFFFFFFFFFFFFFFFFFFFF AND PUSH2 0x8FC PUSH1 0x1 SWAP1 DUP2 ISZERO MUL SWAP1 PUSH1 0x40 MLOAD PUSH1 0x0 PUSH1 0x40 MLOAD DUP1 DUP4 SUB DUP2 DUP6 DUP9 DUP9 CALL SWAP4 POP POP POP POP SWAP1 POP DUP1 PUSH2 0x4E5 JUMPI PUSH1 0x40 MLOAD PUSH32 0x8C379A000000000000000000000000000000000000000000000000000000000 DUP2 MSTORE PUSH1 0x4 ADD PUSH2 0x4DC SWAP1 PUSH2 0x890 JUMP JUMPDEST PUSH1 0x40 MLOAD DUP1 SWAP2 SUB SWAP1 REVERT JUMPDEST DUP2 PUSH20 0xFFFFFFFFFFFFFFFFFFFFFFFFFFFFFFFFFFFFFFFF AND PUSH2 0x8FC PUSH1 0x1 CALLVALUE PUSH2 0x50C SWAP2 SWAP1 PUSH2 0x8DF JUMP JUMPDEST SWAP1 DUP2 ISZERO MUL SWAP1 PUSH1 0x40 MLOAD PUSH1 0x0 PUSH1 0x40 MLOAD DUP1 DUP4 SUB DUP2 DUP6 DUP9 DUP9 CALL SWAP4 POP POP POP POP SWAP1 POP DUP1 PUSH2 0x568 JUMPI PUSH1 0x40 MLOAD PUSH32 0x8C379A000000000000000000000000000000000000000000000000000000000 DUP2 MSTORE PUSH1 0x4 ADD PUSH2 0x55F SWAP1 PUSH2 0x95F JUMP JUMPDEST PUSH1 0x40 MLOAD DUP1 SWAP2 SUB SWAP1 REVERT JUMPDEST DUP4 DUP6 PUSH2 0x574 SWAP2 SWAP1 PUSH2 0x9DF JUMP JUMPDEST SWAP3 POP POP POP SWAP3 SWAP2 POP POP JUMP JUMPDEST PUSH1 0x0 DUP1 CALLER SWAP1 POP PUSH1 0x1 CALLVALUE LT ISZERO PUSH2 0x5C8 JUMPI PUSH1 0x40 MLOAD PUSH32 0x8C379A000000000000000000000000000000000000000000000000000000000 DUP2 MSTORE PUSH1 0x4 ADD PUSH2 0x5BF SWAP1 PUSH2 0x824 JUMP JUMPDEST PUSH1 0x40 MLOAD DUP1 SWAP2 SUB SWAP1 REVERT JUMPDEST PUSH1 0x0 DUP1 PUSH1 0x0 SWAP1 SLOAD SWAP1 PUSH2 0x100 EXP SWAP1 DIV PUSH20 0xFFFFFFFFFFFFFFFFFFFFFFFFFFFFFFFFFFFFFFFF AND PUSH20 0xFFFFFFFFFFFFFFFFFFFFFFFFFFFFFFFFFFFFFFFF AND PUSH2 0x8FC PUSH1 0x1 SWAP1 DUP2 ISZERO MUL SWAP1 PUSH1 0x40 MLOAD PUSH1 0x0 PUSH1 0x40 MLOAD DUP1 DUP4 SUB DUP2 DUP6 DUP9 DUP9 CALL SWAP4 POP POP POP POP SWAP1 POP DUP1 PUSH2 0x663 JUMPI PUSH1 0x40 MLOAD PUSH32 0x8C379A000000000000000000000000000000000000000000000000000000000 DUP2 MSTORE PUSH1 0x4 ADD PUSH2 0x65A SWAP1 PUSH2 0x890 JUMP JUMPDEST PUSH1 0x40 MLOAD DUP1 SWAP2 SUB SWAP1 REVERT JUMPDEST DUP2 PUSH20 0xFFFFFFFFFFFFFFFFFFFFFFFFFFFFFFFFFFFFFFFF AND PUSH2 0x8FC PUSH1 0x1 CALLVALUE PUSH2 0x68A SWAP2 SWAP1 PUSH2 0x8DF JUMP JUMPDEST SWAP1 DUP2 ISZERO MUL SWAP1 PUSH1 0x40 MLOAD PUSH1 0x0 PUSH1 0x40 MLOAD DUP1 DUP4 SUB DUP2 DUP6 DUP9 DUP9 CALL SWAP4 POP POP POP POP SWAP1 POP DUP1 PUSH2 0x6E6 JUMPI PUSH1 0x40 MLOAD PUSH32 0x8C379A000000000000000000000000000000000000000000000000000000000 DUP2 MSTORE PUSH1 0x4 ADD PUSH2 0x6DD SWAP1 PUSH2 0x95F JUMP JUMPDEST PUSH1 0x40 MLOAD DUP1 SWAP2 SUB SWAP1 REVERT JUMPDEST DUP4 DUP6 PUSH2 0x6F2 SWAP2 SWAP1 PUSH2 0xA13 JUMP JUMPDEST SWAP3 POP POP POP SWAP3 SWAP2 POP POP JUMP JUMPDEST PUSH1 0x0 DUP1 REVERT JUMPDEST PUSH1 0x0 DUP2 SWAP1 POP SWAP2 SWAP1 POP JUMP JUMPDEST PUSH2 0x714 DUP2 PUSH2 0x701 JUMP JUMPDEST DUP2 EQ PUSH2 0x71F JUMPI PUSH1 0x0 DUP1 REVERT JUMPDEST POP JUMP JUMPDEST PUSH1 0x0 DUP2 CALLDATALOAD SWAP1 POP PUSH2 0x731 DUP2 PUSH2 0x70B JUMP JUMPDEST SWAP3 SWAP2 POP POP JUMP JUMPDEST PUSH1 0x0 DUP1 PUSH1 0x40 DUP4 DUP6 SUB SLT ISZERO PUSH2 0x74E JUMPI PUSH2 0x74D PUSH2 0x6FC JUMP JUMPDEST JUMPDEST PUSH1 0x0 PUSH2 0x75C DUP6 DUP3 DUP7 ADD PUSH2 0x722 JUMP JUMPDEST SWAP3 POP POP PUSH1 0x20 PUSH2 0x76D DUP6 DUP3 DUP7 ADD PUSH2 0x722 JUMP JUMPDEST SWAP2 POP POP SWAP3 POP SWAP3 SWAP1 POP JUMP JUMPDEST PUSH2 0x780 DUP2 PUSH2 0x701 JUMP JUMPDEST DUP3 MSTORE POP POP JUMP JUMPDEST PUSH1 0x0 PUSH1 0x20 DUP3 ADD SWAP1 POP PUSH2 0x79B PUSH1 0x0 DUP4 ADD DUP5 PUSH2 0x777 JUMP JUMPDEST SWAP3 SWAP2 POP POP JUMP JUMPDEST PUSH1 0x0 DUP3 DUP3 MSTORE PUSH1 0x20 DUP3 ADD SWAP1 POP SWAP3 SWAP2 POP POP JUMP JUMPDEST PUSH32 0x4F2076616C6F72207472616E7366657269646F2064657665207365722070656C PUSH1 0x0 DUP3 ADD MSTORE PUSH32 0x6F206D656E6F7320312077656900000000000000000000000000000000000000 PUSH1 0x20 DUP3 ADD MSTORE POP JUMP JUMPDEST PUSH1 0x0 PUSH2 0x80E PUSH1 0x2D DUP4 PUSH2 0x7A1 JUMP JUMPDEST SWAP2 POP PUSH2 0x819 DUP3 PUSH2 0x7B2 JUMP JUMPDEST PUSH1 0x40 DUP3 ADD SWAP1 POP SWAP2 SWAP1 POP JUMP JUMPDEST PUSH1 0x0 PUSH1 0x20 DUP3 ADD SWAP1 POP DUP2 DUP2 SUB PUSH1 0x0 DUP4 ADD MSTORE PUSH2 0x83D DUP2 PUSH2 0x801 JUMP JUMPDEST SWAP1 POP SWAP2 SWAP1 POP JUMP JUMPDEST PUSH32 0x46616C686120616F20656E76696172207765692070617261206F206F776E6572 PUSH1 0x0 DUP3 ADD MSTORE POP JUMP JUMPDEST PUSH1 0x0 PUSH2 0x87A PUSH1 0x20 DUP4 PUSH2 0x7A1 JUMP JUMPDEST SWAP2 POP PUSH2 0x885 DUP3 PUSH2 0x844 JUMP JUMPDEST PUSH1 0x20 DUP3 ADD SWAP1 POP SWAP2 SWAP1 POP JUMP JUMPDEST PUSH1 0x0 PUSH1 0x20 DUP3 ADD SWAP1 POP DUP2 DUP2 SUB PUSH1 0x0 DUP4 ADD MSTORE PUSH2 0x8A9 DUP2 PUSH2 0x86D JUMP JUMPDEST SWAP1 POP SWAP2 SWAP1 POP JUMP JUMPDEST PUSH32 0x4E487B7100000000000000000000000000000000000000000000000000000000 PUSH1 0x0 MSTORE PUSH1 0x11 PUSH1 0x4 MSTORE PUSH1 0x24 PUSH1 0x0 REVERT JUMPDEST PUSH1 0x0 PUSH2 0x8EA DUP3 PUSH2 0x701 JUMP JUMPDEST SWAP2 POP PUSH2 0x8F5 DUP4 PUSH2 0x701 JUMP JUMPDEST SWAP3 POP DUP3 DUP3 SUB SWAP1 POP DUP2 DUP2 GT ISZERO PUSH2 0x90D JUMPI PUSH2 0x90C PUSH2 0x8B0 JUMP JUMPDEST JUMPDEST SWAP3 SWAP2 POP POP JUMP JUMPDEST PUSH32 0x46616C686120616F20656E76696172207765692070617261206F207061796565 PUSH1 0x0 DUP3 ADD MSTORE POP JUMP JUMPDEST PUSH1 0x0 PUSH2 0x949 PUSH1 0x20 DUP4 PUSH2 0x7A1 JUMP JUMPDEST SWAP2 POP PUSH2 0x954 DUP3 PUSH2 0x913 JUMP JUMPDEST PUSH1 0x20 DUP3 ADD SWAP1 POP SWAP2 SWAP1 POP JUMP JUMPDEST PUSH1 0x0 PUSH1 0x20 DUP3 ADD SWAP1 POP DUP2 DUP2 SUB PUSH1 0x0 DUP4 ADD MSTORE PUSH2 0x978 DUP2 PUSH2 0x93C JUMP JUMPDEST SWAP1 POP SWAP2 SWAP1 POP JUMP JUMPDEST PUSH32 0x4E487B7100000000000000000000000000000000000000000000000000000000 PUSH1 0x0 MSTORE PUSH1 0x12 PUSH1 0x4 MSTORE PUSH1 0x24 PUSH1 0x0 REVERT JUMPDEST PUSH1 0x0 PUSH2 0x9B9 DUP3 PUSH2 0x701 JUMP JUMPDEST SWAP2 POP PUSH2 0x9C4 DUP4 PUSH2 0x701 JUMP JUMPDEST SWAP3 POP DUP3 PUSH2 0x9D4 JUMPI PUSH2 0x9D3 PUSH2 0x97F JUMP JUMPDEST JUMPDEST DUP3 DUP3 DIV SWAP1 POP SWAP3 SWAP2 POP POP JUMP JUMPDEST PUSH1 0x0 PUSH2 0x9EA DUP3 PUSH2 0x701 JUMP JUMPDEST SWAP2 POP PUSH2 0x9F5 DUP4 PUSH2 0x701 JUMP JUMPDEST SWAP3 POP DUP3 DUP3 ADD SWAP1 POP DUP1 DUP3 GT ISZERO PUSH2 0xA0D JUMPI PUSH2 0xA0C PUSH2 0x8B0 JUMP JUMPDEST JUMPDEST SWAP3 SWAP2 POP POP JUMP JUMPDEST PUSH1 0x0 PUSH2 0xA1E DUP3 PUSH2 0x701 JUMP JUMPDEST SWAP2 POP PUSH2 0xA29 DUP4 PUSH2 0x701 JUMP JUMPDEST SWAP3 POP DUP3 DUP3 MUL PUSH2 0xA37 DUP2 PUSH2 0x701 JUMP JUMPDEST SWAP2 POP DUP3 DUP3 DIV DUP5 EQ DUP4 ISZERO OR PUSH2 0xA4E JUMPI PUSH2 0xA4D PUSH2 0x8B0 JUMP JUMPDEST JUMPDEST POP SWAP3 SWAP2 POP POP JUMP INVALID LOG2 PUSH5 0x6970667358 0x22 SLT KECCAK256 EXTCODECOPY GASLIMIT 0xEC 0xC0 EXTCODECOPY 0xD1 0xE9 0xE7 PUSH23 0xAFE28B5094B9A80478CDE41D7682907EDD6C31D62DDD3F PUSH5 0x736F6C6343 STOP ADDMOD GT STOP CALLER "
				},
				"gasEstimates": {
					"creation": {
						"codeDepositCost": "539800",
						"executionCost": "24841",
						"totalCost": "564641"
					},
					"external": {
						"dividir(uint256,uint256)": "infinite",
						"multiplicar(uint256,uint256)": "infinite",
						"somar(uint256,uint256)": "infinite",
						"subtrair(uint256,uint256)": "infinite"
					}
				},
				"methodIdentifiers": {
					"dividir(uint256,uint256)": "1bdbe55d",
					"multiplicar(uint256,uint256)": "fbf188a2",
					"somar(uint256,uint256)": "a112c5da",
					"subtrair(uint256,uint256)": "72f214b8"
				}
			},
			"storageLayout": {
				"storage": [
					{
						"astId": 3,
						"contract": "Trabalho Pos/Exercicio2D.sol:Contract",
						"label": "owner",
						"offset": 0,
						"slot": "0",
						"type": "t_address"
					}
				],
				"types": {
					"t_address": {
						"encoding": "inplace",
						"label": "address",
						"numberOfBytes": "20"
					}
				}
			},
			"userdoc": {
				"kind": "user",
				"methods": {},
				"version": 1
			}
		}
	}
}