{
	"Trabalho Pos/Exercicio2C.sol": {
		"Contract": {
			"abi": [
				{
					"inputs": [],
					"stateMutability": "nonpayable",
					"type": "constructor"
				},
				{
					"stateMutability": "payable",
					"type": "fallback"
				},
				{
					"inputs": [],
					"name": "payTheOwner",
					"outputs": [],
					"stateMutability": "payable",
					"type": "function"
				},
				{
					"stateMutability": "payable",
					"type": "receive"
				}
			],
			"devdoc": {
				"kind": "dev",
				"methods": {},
				"version": 1
			},
			"evm": {
				"assembly": "    /* \"Trabalho Pos/Exercicio2C.sol\":368:946  contract Contract {... */\n  mstore(0x40, 0x80)\n    /* \"Trabalho Pos/Exercicio2C.sol\":421:471  constructor(){... */\n  callvalue\n  dup1\n  iszero\n  tag_1\n  jumpi\n  0x00\n  dup1\n  revert\ntag_1:\n  pop\n    /* \"Trabalho Pos/Exercicio2C.sol\":453:463  msg.sender */\n  caller\n    /* \"Trabalho Pos/Exercicio2C.sol\":445:450  owner */\n  0x00\n  dup1\n    /* \"Trabalho Pos/Exercicio2C.sol\":445:463  owner = msg.sender */\n  0x0100\n  exp\n  dup2\n  sload\n  dup2\n  0xffffffffffffffffffffffffffffffffffffffff\n  mul\n  not\n  and\n  swap1\n  dup4\n  0xffffffffffffffffffffffffffffffffffffffff\n  and\n  mul\n  or\n  swap1\n  sstore\n  pop\n    /* \"Trabalho Pos/Exercicio2C.sol\":368:946  contract Contract {... */\n  dataSize(sub_0)\n  dup1\n  dataOffset(sub_0)\n  0x00\n  codecopy\n  0x00\n  return\nstop\n\nsub_0: assembly {\n        /* \"Trabalho Pos/Exercicio2C.sol\":368:946  contract Contract {... */\n      mstore(0x40, 0x80)\n      jumpi(tag_1, lt(calldatasize, 0x04))\n      shr(0xe0, calldataload(0x00))\n      dup1\n      0x184ef4f1\n      eq\n      tag_3\n      jumpi\n      jump(tag_2)\n    tag_1:\n      jumpi(tag_2, calldatasize)\n      stop\n    tag_2:\n      stop\n        /* \"Trabalho Pos/Exercicio2C.sol\":554:943  function payTheOwner() public payable {... */\n    tag_3:\n      tag_8\n      tag_9\n      jump\t// in\n    tag_8:\n      stop\n    tag_9:\n        /* \"Trabalho Pos/Exercicio2C.sol\":603:616  address payee */\n      0x00\n        /* \"Trabalho Pos/Exercicio2C.sol\":619:629  msg.sender */\n      caller\n        /* \"Trabalho Pos/Exercicio2C.sol\":603:629  address payee = msg.sender */\n      swap1\n      pop\n        /* \"Trabalho Pos/Exercicio2C.sol\":661:666  1 wei */\n      0x01\n        /* \"Trabalho Pos/Exercicio2C.sol\":650:659  msg.value */\n      callvalue\n        /* \"Trabalho Pos/Exercicio2C.sol\":650:666  msg.value>=1 wei */\n      lt\n      iszero\n        /* \"Trabalho Pos/Exercicio2C.sol\":642:716  require(msg.value>=1 wei, \"O valor transferido deve ser pelo menos 1 wei\") */\n      tag_11\n      jumpi\n      mload(0x40)\n      0x08c379a000000000000000000000000000000000000000000000000000000000\n      dup2\n      mstore\n      0x04\n      add\n      tag_12\n      swap1\n      tag_13\n      jump\t// in\n    tag_12:\n      mload(0x40)\n      dup1\n      swap2\n      sub\n      swap1\n      revert\n    tag_11:\n        /* \"Trabalho Pos/Exercicio2C.sol\":729:738  bool sent */\n      0x00\n        /* \"Trabalho Pos/Exercicio2C.sol\":749:754  owner */\n      dup1\n      0x00\n      swap1\n      sload\n      swap1\n      0x0100\n      exp\n      swap1\n      div\n      0xffffffffffffffffffffffffffffffffffffffff\n      and\n        /* \"Trabalho Pos/Exercicio2C.sol\":741:760  payable(owner).send */\n      0xffffffffffffffffffffffffffffffffffffffff\n      and\n        /* \"Trabalho Pos/Exercicio2C.sol\":741:763  payable(owner).send(1) */\n      0x08fc\n        /* \"Trabalho Pos/Exercicio2C.sol\":761:762  1 */\n      0x01\n        /* \"Trabalho Pos/Exercicio2C.sol\":741:763  payable(owner).send(1) */\n      swap1\n      dup2\n      iszero\n      mul\n      swap1\n      mload(0x40)\n      0x00\n      mload(0x40)\n      dup1\n      dup4\n      sub\n      dup2\n      dup6\n      dup9\n      dup9\n      call\n      swap4\n      pop\n      pop\n      pop\n      pop\n        /* \"Trabalho Pos/Exercicio2C.sol\":729:763  bool sent = payable(owner).send(1) */\n      swap1\n      pop\n        /* \"Trabalho Pos/Exercicio2C.sol\":782:786  sent */\n      dup1\n        /* \"Trabalho Pos/Exercicio2C.sol\":774:823  require(sent, \"Falha ao enviar wei para o owner\") */\n      tag_15\n      jumpi\n      mload(0x40)\n      0x08c379a000000000000000000000000000000000000000000000000000000000\n      dup2\n      mstore\n      0x04\n      add\n      tag_16\n      swap1\n      tag_17\n      jump\t// in\n    tag_16:\n      mload(0x40)\n      dup1\n      swap2\n      sub\n      swap1\n      revert\n    tag_15:\n        /* \"Trabalho Pos/Exercicio2C.sol\":851:856  payee */\n      dup2\n        /* \"Trabalho Pos/Exercicio2C.sol\":843:862  payable(payee).send */\n      0xffffffffffffffffffffffffffffffffffffffff\n      and\n        /* \"Trabalho Pos/Exercicio2C.sol\":843:875  payable(payee).send(msg.value-1) */\n      0x08fc\n        /* \"Trabalho Pos/Exercicio2C.sol\":873:874  1 */\n      0x01\n        /* \"Trabalho Pos/Exercicio2C.sol\":863:872  msg.value */\n      callvalue\n        /* \"Trabalho Pos/Exercicio2C.sol\":863:874  msg.value-1 */\n      tag_18\n      swap2\n      swap1\n      tag_19\n      jump\t// in\n    tag_18:\n        /* \"Trabalho Pos/Exercicio2C.sol\":843:875  payable(payee).send(msg.value-1) */\n      swap1\n      dup2\n      iszero\n      mul\n      swap1\n      mload(0x40)\n      0x00\n      mload(0x40)\n      dup1\n      dup4\n      sub\n      dup2\n      dup6\n      dup9\n      dup9\n      call\n      swap4\n      pop\n      pop\n      pop\n      pop\n        /* \"Trabalho Pos/Exercicio2C.sol\":836:875  sent = payable(payee).send(msg.value-1) */\n      swap1\n      pop\n        /* \"Trabalho Pos/Exercicio2C.sol\":894:898  sent */\n      dup1\n        /* \"Trabalho Pos/Exercicio2C.sol\":886:935  require(sent, \"Falha ao enviar wei para o payee\") */\n      tag_21\n      jumpi\n      mload(0x40)\n      0x08c379a000000000000000000000000000000000000000000000000000000000\n      dup2\n      mstore\n      0x04\n      add\n      tag_22\n      swap1\n      tag_23\n      jump\t// in\n    tag_22:\n      mload(0x40)\n      dup1\n      swap2\n      sub\n      swap1\n      revert\n    tag_21:\n        /* \"Trabalho Pos/Exercicio2C.sol\":592:943  {... */\n      pop\n      pop\n        /* \"Trabalho Pos/Exercicio2C.sol\":554:943  function payTheOwner() public payable {... */\n      jump\t// out\n        /* \"#utility.yul\":7:176   */\n    tag_24:\n        /* \"#utility.yul\":91:102   */\n      0x00\n        /* \"#utility.yul\":125:131   */\n      dup3\n        /* \"#utility.yul\":120:123   */\n      dup3\n        /* \"#utility.yul\":113:132   */\n      mstore\n        /* \"#utility.yul\":165:169   */\n      0x20\n        /* \"#utility.yul\":160:163   */\n      dup3\n        /* \"#utility.yul\":156:170   */\n      add\n        /* \"#utility.yul\":141:170   */\n      swap1\n      pop\n        /* \"#utility.yul\":7:176   */\n      swap3\n      swap2\n      pop\n      pop\n      jump\t// out\n        /* \"#utility.yul\":182:414   */\n    tag_25:\n        /* \"#utility.yul\":322:356   */\n      0x4f2076616c6f72207472616e7366657269646f2064657665207365722070656c\n        /* \"#utility.yul\":318:319   */\n      0x00\n        /* \"#utility.yul\":310:316   */\n      dup3\n        /* \"#utility.yul\":306:320   */\n      add\n        /* \"#utility.yul\":299:357   */\n      mstore\n        /* \"#utility.yul\":391:406   */\n      0x6f206d656e6f7320312077656900000000000000000000000000000000000000\n        /* \"#utility.yul\":386:388   */\n      0x20\n        /* \"#utility.yul\":378:384   */\n      dup3\n        /* \"#utility.yul\":374:389   */\n      add\n        /* \"#utility.yul\":367:407   */\n      mstore\n        /* \"#utility.yul\":182:414   */\n      pop\n      jump\t// out\n        /* \"#utility.yul\":420:786   */\n    tag_26:\n        /* \"#utility.yul\":562:565   */\n      0x00\n        /* \"#utility.yul\":583:650   */\n      tag_37\n        /* \"#utility.yul\":647:649   */\n      0x2d\n        /* \"#utility.yul\":642:645   */\n      dup4\n        /* \"#utility.yul\":583:650   */\n      tag_24\n      jump\t// in\n    tag_37:\n        /* \"#utility.yul\":576:650   */\n      swap2\n      pop\n        /* \"#utility.yul\":659:752   */\n      tag_38\n        /* \"#utility.yul\":748:751   */\n      dup3\n        /* \"#utility.yul\":659:752   */\n      tag_25\n      jump\t// in\n    tag_38:\n        /* \"#utility.yul\":777:779   */\n      0x40\n        /* \"#utility.yul\":772:775   */\n      dup3\n        /* \"#utility.yul\":768:780   */\n      add\n        /* \"#utility.yul\":761:780   */\n      swap1\n      pop\n        /* \"#utility.yul\":420:786   */\n      swap2\n      swap1\n      pop\n      jump\t// out\n        /* \"#utility.yul\":792:1211   */\n    tag_13:\n        /* \"#utility.yul\":958:962   */\n      0x00\n        /* \"#utility.yul\":996:998   */\n      0x20\n        /* \"#utility.yul\":985:994   */\n      dup3\n        /* \"#utility.yul\":981:999   */\n      add\n        /* \"#utility.yul\":973:999   */\n      swap1\n      pop\n        /* \"#utility.yul\":1045:1054   */\n      dup2\n        /* \"#utility.yul\":1039:1043   */\n      dup2\n        /* \"#utility.yul\":1035:1055   */\n      sub\n        /* \"#utility.yul\":1031:1032   */\n      0x00\n        /* \"#utility.yul\":1020:1029   */\n      dup4\n        /* \"#utility.yul\":1016:1033   */\n      add\n        /* \"#utility.yul\":1009:1056   */\n      mstore\n        /* \"#utility.yul\":1073:1204   */\n      tag_40\n        /* \"#utility.yul\":1199:1203   */\n      dup2\n        /* \"#utility.yul\":1073:1204   */\n      tag_26\n      jump\t// in\n    tag_40:\n        /* \"#utility.yul\":1065:1204   */\n      swap1\n      pop\n        /* \"#utility.yul\":792:1211   */\n      swap2\n      swap1\n      pop\n      jump\t// out\n        /* \"#utility.yul\":1217:1399   */\n    tag_27:\n        /* \"#utility.yul\":1357:1391   */\n      0x46616c686120616f20656e76696172207765692070617261206f206f776e6572\n        /* \"#utility.yul\":1353:1354   */\n      0x00\n        /* \"#utility.yul\":1345:1351   */\n      dup3\n        /* \"#utility.yul\":1341:1355   */\n      add\n        /* \"#utility.yul\":1334:1392   */\n      mstore\n        /* \"#utility.yul\":1217:1399   */\n      pop\n      jump\t// out\n        /* \"#utility.yul\":1405:1771   */\n    tag_28:\n        /* \"#utility.yul\":1547:1550   */\n      0x00\n        /* \"#utility.yul\":1568:1635   */\n      tag_43\n        /* \"#utility.yul\":1632:1634   */\n      0x20\n        /* \"#utility.yul\":1627:1630   */\n      dup4\n        /* \"#utility.yul\":1568:1635   */\n      tag_24\n      jump\t// in\n    tag_43:\n        /* \"#utility.yul\":1561:1635   */\n      swap2\n      pop\n        /* \"#utility.yul\":1644:1737   */\n      tag_44\n        /* \"#utility.yul\":1733:1736   */\n      dup3\n        /* \"#utility.yul\":1644:1737   */\n      tag_27\n      jump\t// in\n    tag_44:\n        /* \"#utility.yul\":1762:1764   */\n      0x20\n        /* \"#utility.yul\":1757:1760   */\n      dup3\n        /* \"#utility.yul\":1753:1765   */\n      add\n        /* \"#utility.yul\":1746:1765   */\n      swap1\n      pop\n        /* \"#utility.yul\":1405:1771   */\n      swap2\n      swap1\n      pop\n      jump\t// out\n        /* \"#utility.yul\":1777:2196   */\n    tag_17:\n        /* \"#utility.yul\":1943:1947   */\n      0x00\n        /* \"#utility.yul\":1981:1983   */\n      0x20\n        /* \"#utility.yul\":1970:1979   */\n      dup3\n        /* \"#utility.yul\":1966:1984   */\n      add\n        /* \"#utility.yul\":1958:1984   */\n      swap1\n      pop\n        /* \"#utility.yul\":2030:2039   */\n      dup2\n        /* \"#utility.yul\":2024:2028   */\n      dup2\n        /* \"#utility.yul\":2020:2040   */\n      sub\n        /* \"#utility.yul\":2016:2017   */\n      0x00\n        /* \"#utility.yul\":2005:2014   */\n      dup4\n        /* \"#utility.yul\":2001:2018   */\n      add\n        /* \"#utility.yul\":1994:2041   */\n      mstore\n        /* \"#utility.yul\":2058:2189   */\n      tag_46\n        /* \"#utility.yul\":2184:2188   */\n      dup2\n        /* \"#utility.yul\":2058:2189   */\n      tag_28\n      jump\t// in\n    tag_46:\n        /* \"#utility.yul\":2050:2189   */\n      swap1\n      pop\n        /* \"#utility.yul\":1777:2196   */\n      swap2\n      swap1\n      pop\n      jump\t// out\n        /* \"#utility.yul\":2202:2279   */\n    tag_29:\n        /* \"#utility.yul\":2239:2246   */\n      0x00\n        /* \"#utility.yul\":2268:2273   */\n      dup2\n        /* \"#utility.yul\":2257:2273   */\n      swap1\n      pop\n        /* \"#utility.yul\":2202:2279   */\n      swap2\n      swap1\n      pop\n      jump\t// out\n        /* \"#utility.yul\":2285:2465   */\n    tag_30:\n        /* \"#utility.yul\":2333:2410   */\n      0x4e487b7100000000000000000000000000000000000000000000000000000000\n        /* \"#utility.yul\":2330:2331   */\n      0x00\n        /* \"#utility.yul\":2323:2411   */\n      mstore\n        /* \"#utility.yul\":2430:2434   */\n      0x11\n        /* \"#utility.yul\":2427:2428   */\n      0x04\n        /* \"#utility.yul\":2420:2435   */\n      mstore\n        /* \"#utility.yul\":2454:2458   */\n      0x24\n        /* \"#utility.yul\":2451:2452   */\n      0x00\n        /* \"#utility.yul\":2444:2459   */\n      revert\n        /* \"#utility.yul\":2471:2665   */\n    tag_19:\n        /* \"#utility.yul\":2511:2515   */\n      0x00\n        /* \"#utility.yul\":2531:2551   */\n      tag_50\n        /* \"#utility.yul\":2549:2550   */\n      dup3\n        /* \"#utility.yul\":2531:2551   */\n      tag_29\n      jump\t// in\n    tag_50:\n        /* \"#utility.yul\":2526:2551   */\n      swap2\n      pop\n        /* \"#utility.yul\":2565:2585   */\n      tag_51\n        /* \"#utility.yul\":2583:2584   */\n      dup4\n        /* \"#utility.yul\":2565:2585   */\n      tag_29\n      jump\t// in\n    tag_51:\n        /* \"#utility.yul\":2560:2585   */\n      swap3\n      pop\n        /* \"#utility.yul\":2609:2610   */\n      dup3\n        /* \"#utility.yul\":2606:2607   */\n      dup3\n        /* \"#utility.yul\":2602:2611   */\n      sub\n        /* \"#utility.yul\":2594:2611   */\n      swap1\n      pop\n        /* \"#utility.yul\":2633:2634   */\n      dup2\n        /* \"#utility.yul\":2627:2631   */\n      dup2\n        /* \"#utility.yul\":2624:2635   */\n      gt\n        /* \"#utility.yul\":2621:2658   */\n      iszero\n      tag_52\n      jumpi\n        /* \"#utility.yul\":2638:2656   */\n      tag_53\n      tag_30\n      jump\t// in\n    tag_53:\n        /* \"#utility.yul\":2621:2658   */\n    tag_52:\n        /* \"#utility.yul\":2471:2665   */\n      swap3\n      swap2\n      pop\n      pop\n      jump\t// out\n        /* \"#utility.yul\":2671:2853   */\n    tag_31:\n        /* \"#utility.yul\":2811:2845   */\n      0x46616c686120616f20656e76696172207765692070617261206f207061796565\n        /* \"#utility.yul\":2807:2808   */\n      0x00\n        /* \"#utility.yul\":2799:2805   */\n      dup3\n        /* \"#utility.yul\":2795:2809   */\n      add\n        /* \"#utility.yul\":2788:2846   */\n      mstore\n        /* \"#utility.yul\":2671:2853   */\n      pop\n      jump\t// out\n        /* \"#utility.yul\":2859:3225   */\n    tag_32:\n        /* \"#utility.yul\":3001:3004   */\n      0x00\n        /* \"#utility.yul\":3022:3089   */\n      tag_56\n        /* \"#utility.yul\":3086:3088   */\n      0x20\n        /* \"#utility.yul\":3081:3084   */\n      dup4\n        /* \"#utility.yul\":3022:3089   */\n      tag_24\n      jump\t// in\n    tag_56:\n        /* \"#utility.yul\":3015:3089   */\n      swap2\n      pop\n        /* \"#utility.yul\":3098:3191   */\n      tag_57\n        /* \"#utility.yul\":3187:3190   */\n      dup3\n        /* \"#utility.yul\":3098:3191   */\n      tag_31\n      jump\t// in\n    tag_57:\n        /* \"#utility.yul\":3216:3218   */\n      0x20\n        /* \"#utility.yul\":3211:3214   */\n      dup3\n        /* \"#utility.yul\":3207:3219   */\n      add\n        /* \"#utility.yul\":3200:3219   */\n      swap1\n      pop\n        /* \"#utility.yul\":2859:3225   */\n      swap2\n      swap1\n      pop\n      jump\t// out\n        /* \"#utility.yul\":3231:3650   */\n    tag_23:\n        /* \"#utility.yul\":3397:3401   */\n      0x00\n        /* \"#utility.yul\":3435:3437   */\n      0x20\n        /* \"#utility.yul\":3424:3433   */\n      dup3\n        /* \"#utility.yul\":3420:3438   */\n      add\n        /* \"#utility.yul\":3412:3438   */\n      swap1\n      pop\n        /* \"#utility.yul\":3484:3493   */\n      dup2\n        /* \"#utility.yul\":3478:3482   */\n      dup2\n        /* \"#utility.yul\":3474:3494   */\n      sub\n        /* \"#utility.yul\":3470:3471   */\n      0x00\n        /* \"#utility.yul\":3459:3468   */\n      dup4\n        /* \"#utility.yul\":3455:3472   */\n      add\n        /* \"#utility.yul\":3448:3495   */\n      mstore\n        /* \"#utility.yul\":3512:3643   */\n      tag_59\n        /* \"#utility.yul\":3638:3642   */\n      dup2\n        /* \"#utility.yul\":3512:3643   */\n      tag_32\n      jump\t// in\n    tag_59:\n        /* \"#utility.yul\":3504:3643   */\n      swap1\n      pop\n        /* \"#utility.yul\":3231:3650   */\n      swap2\n      swap1\n      pop\n      jump\t// out\n\n    auxdata: 0xa2646970667358221220e3d70eb34b2fc8ef0aa12f2ee7abac0cb74b4c41b7ca49ab1f55fa78532fbaaf64736f6c63430008110033\n}\n",
				"bytecode": {
					"linkReferences": {},
					"object": "608060405234801561001057600080fd5b50336000806101000a81548173ffffffffffffffffffffffffffffffffffffffff021916908373ffffffffffffffffffffffffffffffffffffffff1602179055506103be806100606000396000f3fe6080604052600436106100225760003560e01c8063184ef4f11461002b57610029565b3661002957005b005b610033610035565b005b6000339050600134101561007e576040517f08c379a000000000000000000000000000000000000000000000000000000000815260040161007590610223565b60405180910390fd5b60008060009054906101000a900473ffffffffffffffffffffffffffffffffffffffff1673ffffffffffffffffffffffffffffffffffffffff166108fc60019081150290604051600060405180830381858888f19350505050905080610119576040517f08c379a00000000000000000000000000000000000000000000000000000000081526004016101109061028f565b60405180910390fd5b8173ffffffffffffffffffffffffffffffffffffffff166108fc60013461014091906102e8565b9081150290604051600060405180830381858888f1935050505090508061019c576040517f08c379a000000000000000000000000000000000000000000000000000000000815260040161019390610368565b60405180910390fd5b5050565b600082825260208201905092915050565b7f4f2076616c6f72207472616e7366657269646f2064657665207365722070656c60008201527f6f206d656e6f7320312077656900000000000000000000000000000000000000602082015250565b600061020d602d836101a0565b9150610218826101b1565b604082019050919050565b6000602082019050818103600083015261023c81610200565b9050919050565b7f46616c686120616f20656e76696172207765692070617261206f206f776e6572600082015250565b60006102796020836101a0565b915061028482610243565b602082019050919050565b600060208201905081810360008301526102a88161026c565b9050919050565b6000819050919050565b7f4e487b7100000000000000000000000000000000000000000000000000000000600052601160045260246000fd5b60006102f3826102af565b91506102fe836102af565b9250828203905081811115610316576103156102b9565b5b92915050565b7f46616c686120616f20656e76696172207765692070617261206f207061796565600082015250565b60006103526020836101a0565b915061035d8261031c565b602082019050919050565b6000602082019050818103600083015261038181610345565b905091905056fea2646970667358221220e3d70eb34b2fc8ef0aa12f2ee7abac0cb74b4c41b7ca49ab1f55fa78532fbaaf64736f6c63430008110033",
					"opcodes": "PUSH1 0x80 PUSH1 0x40 MSTORE CALLVALUE DUP1 ISZERO PUSH2 0x10 JUMPI PUSH1 0x0 DUP1 REVERT JUMPDEST POP CALLER PUSH1 0x0 DUP1 PUSH2 0x100 EXP DUP2 SLOAD DUP2 PUSH20 0xFFFFFFFFFFFFFFFFFFFFFFFFFFFFFFFFFFFFFFFF MUL NOT AND SWAP1 DUP4 PUSH20 0xFFFFFFFFFFFFFFFFFFFFFFFFFFFFFFFFFFFFFFFF AND MUL OR SWAP1 SSTORE POP PUSH2 0x3BE DUP1 PUSH2 0x60 PUSH1 0x0 CODECOPY PUSH1 0x0 RETURN INVALID PUSH1 0x80 PUSH1 0x40 MSTORE PUSH1 0x4 CALLDATASIZE LT PUSH2 0x22 JUMPI PUSH1 0x0 CALLDATALOAD PUSH1 0xE0 SHR DUP1 PUSH4 0x184EF4F1 EQ PUSH2 0x2B JUMPI PUSH2 0x29 JUMP JUMPDEST CALLDATASIZE PUSH2 0x29 JUMPI STOP JUMPDEST STOP JUMPDEST PUSH2 0x33 PUSH2 0x35 JUMP JUMPDEST STOP JUMPDEST PUSH1 0x0 CALLER SWAP1 POP PUSH1 0x1 CALLVALUE LT ISZERO PUSH2 0x7E JUMPI PUSH1 0x40 MLOAD PUSH32 0x8C379A000000000000000000000000000000000000000000000000000000000 DUP2 MSTORE PUSH1 0x4 ADD PUSH2 0x75 SWAP1 PUSH2 0x223 JUMP JUMPDEST PUSH1 0x40 MLOAD DUP1 SWAP2 SUB SWAP1 REVERT JUMPDEST PUSH1 0x0 DUP1 PUSH1 0x0 SWAP1 SLOAD SWAP1 PUSH2 0x100 EXP SWAP1 DIV PUSH20 0xFFFFFFFFFFFFFFFFFFFFFFFFFFFFFFFFFFFFFFFF AND PUSH20 0xFFFFFFFFFFFFFFFFFFFFFFFFFFFFFFFFFFFFFFFF AND PUSH2 0x8FC PUSH1 0x1 SWAP1 DUP2 ISZERO MUL SWAP1 PUSH1 0x40 MLOAD PUSH1 0x0 PUSH1 0x40 MLOAD DUP1 DUP4 SUB DUP2 DUP6 DUP9 DUP9 CALL SWAP4 POP POP POP POP SWAP1 POP DUP1 PUSH2 0x119 JUMPI PUSH1 0x40 MLOAD PUSH32 0x8C379A000000000000000000000000000000000000000000000000000000000 DUP2 MSTORE PUSH1 0x4 ADD PUSH2 0x110 SWAP1 PUSH2 0x28F JUMP JUMPDEST PUSH1 0x40 MLOAD DUP1 SWAP2 SUB SWAP1 REVERT JUMPDEST DUP2 PUSH20 0xFFFFFFFFFFFFFFFFFFFFFFFFFFFFFFFFFFFFFFFF AND PUSH2 0x8FC PUSH1 0x1 CALLVALUE PUSH2 0x140 SWAP2 SWAP1 PUSH2 0x2E8 JUMP JUMPDEST SWAP1 DUP2 ISZERO MUL SWAP1 PUSH1 0x40 MLOAD PUSH1 0x0 PUSH1 0x40 MLOAD DUP1 DUP4 SUB DUP2 DUP6 DUP9 DUP9 CALL SWAP4 POP POP POP POP SWAP1 POP DUP1 PUSH2 0x19C JUMPI PUSH1 0x40 MLOAD PUSH32 0x8C379A000000000000000000000000000000000000000000000000000000000 DUP2 MSTORE PUSH1 0x4 ADD PUSH2 0x193 SWAP1 PUSH2 0x368 JUMP JUMPDEST PUSH1 0x40 MLOAD DUP1 SWAP2 SUB SWAP1 REVERT JUMPDEST POP POP JUMP JUMPDEST PUSH1 0x0 DUP3 DUP3 MSTORE PUSH1 0x20 DUP3 ADD SWAP1 POP SWAP3 SWAP2 POP POP JUMP JUMPDEST PUSH32 0x4F2076616C6F72207472616E7366657269646F2064657665207365722070656C PUSH1 0x0 DUP3 ADD MSTORE PUSH32 0x6F206D656E6F7320312077656900000000000000000000000000000000000000 PUSH1 0x20 DUP3 ADD MSTORE POP JUMP JUMPDEST PUSH1 0x0 PUSH2 0x20D PUSH1 0x2D DUP4 PUSH2 0x1A0 JUMP JUMPDEST SWAP2 POP PUSH2 0x218 DUP3 PUSH2 0x1B1 JUMP JUMPDEST PUSH1 0x40 DUP3 ADD SWAP1 POP SWAP2 SWAP1 POP JUMP JUMPDEST PUSH1 0x0 PUSH1 0x20 DUP3 ADD SWAP1 POP DUP2 DUP2 SUB PUSH1 0x0 DUP4 ADD MSTORE PUSH2 0x23C DUP2 PUSH2 0x200 JUMP JUMPDEST SWAP1 POP SWAP2 SWAP1 POP JUMP JUMPDEST PUSH32 0x46616C686120616F20656E76696172207765692070617261206F206F776E6572 PUSH1 0x0 DUP3 ADD MSTORE POP JUMP JUMPDEST PUSH1 0x0 PUSH2 0x279 PUSH1 0x20 DUP4 PUSH2 0x1A0 JUMP JUMPDEST SWAP2 POP PUSH2 0x284 DUP3 PUSH2 0x243 JUMP JUMPDEST PUSH1 0x20 DUP3 ADD SWAP1 POP SWAP2 SWAP1 POP JUMP JUMPDEST PUSH1 0x0 PUSH1 0x20 DUP3 ADD SWAP1 POP DUP2 DUP2 SUB PUSH1 0x0 DUP4 ADD MSTORE PUSH2 0x2A8 DUP2 PUSH2 0x26C JUMP JUMPDEST SWAP1 POP SWAP2 SWAP1 POP JUMP JUMPDEST PUSH1 0x0 DUP2 SWAP1 POP SWAP2 SWAP1 POP JUMP JUMPDEST PUSH32 0x4E487B7100000000000000000000000000000000000000000000000000000000 PUSH1 0x0 MSTORE PUSH1 0x11 PUSH1 0x4 MSTORE PUSH1 0x24 PUSH1 0x0 REVERT JUMPDEST PUSH1 0x0 PUSH2 0x2F3 DUP3 PUSH2 0x2AF JUMP JUMPDEST SWAP2 POP PUSH2 0x2FE DUP4 PUSH2 0x2AF JUMP JUMPDEST SWAP3 POP DUP3 DUP3 SUB SWAP1 POP DUP2 DUP2 GT ISZERO PUSH2 0x316 JUMPI PUSH2 0x315 PUSH2 0x2B9 JUMP JUMPDEST JUMPDEST SWAP3 SWAP2 POP POP JUMP JUMPDEST PUSH32 0x46616C686120616F20656E76696172207765692070617261206F207061796565 PUSH1 0x0 DUP3 ADD MSTORE POP JUMP JUMPDEST PUSH1 0x0 PUSH2 0x352 PUSH1 0x20 DUP4 PUSH2 0x1A0 JUMP JUMPDEST SWAP2 POP PUSH2 0x35D DUP3 PUSH2 0x31C JUMP JUMPDEST PUSH1 0x20 DUP3 ADD SWAP1 POP SWAP2 SWAP1 POP JUMP JUMPDEST PUSH1 0x0 PUSH1 0x20 DUP3 ADD SWAP1 POP DUP2 DUP2 SUB PUSH1 0x0 DUP4 ADD MSTORE PUSH2 0x381 DUP2 PUSH2 0x345 JUMP JUMPDEST SWAP1 POP SWAP2 SWAP1 POP JUMP INVALID LOG2 PUSH5 0x6970667358 0x22 SLT KECCAK256 0xE3 0xD7 0xE 0xB3 0x4B 0x2F 0xC8 0xEF EXP LOG1 0x2F 0x2E 0xE7 0xAB 0xAC 0xC 0xB7 0x4B 0x4C COINBASE 0xB7 0xCA 0x49 0xAB 0x1F SSTORE STATICCALL PUSH25 0x532FBAAF64736F6C6343000811003300000000000000000000 "
				},
				"gasEstimates": {
					"creation": {
						"codeDepositCost": "191600",
						"executionCost": "24498",
						"totalCost": "216098"
					},
					"external": {
						"": "85",
						"payTheOwner()": "infinite"
					}
				},
				"methodIdentifiers": {
					"payTheOwner()": "184ef4f1"
				}
			},
			"storageLayout": {
				"storage": [
					{
						"astId": 3,
						"contract": "Trabalho Pos/Exercicio2C.sol:Contract",
						"label": "owner",
						"offset": 0,
						"slot": "0",
						"type": "t_address"
					}
				],
				"types": {
					"t_address": {
						"encoding": "inplace",
						"label": "address",
						"numberOfBytes": "20"
					}
				}
			},
			"userdoc": {
				"kind": "user",
				"methods": {},
				"version": 1
			}
		}
	}
}